:04000000D8EF01F044
:08000800046ED8CF05F0E0CF33
:1000100006F00001E9CF0CF0EACF07F0E1CF08F0DD
:10002000E2CF09F0D9CF0AF0DACF0BF0F3CF12F01C
:10003000F4CF13F0FACF14F000C00EF001C00FF0AF
:1000400002C010F003C011F09DAA2AEF00F09EBA82
:100050005DEF00F0A3AA30EF00F0A4BA8EEF00F03D
:100060000EC000F00FC001F010C002F011C003F08C
:100070000CC0E9FF07C0EAFF078E08C0E1FF09C016
:10008000E2FF0AC0D9FF0BC0DAFF12C0F3FF13C0B2
:10009000F4FF14C0FAFF045006C0E0FF05C0D8FF0B
:1000A00010009EAAFED7ABCF1CF0AECF01F01CA271
:1000B00002D0AB98AB885EEF00F0F3D701C084F0BC
:1000C000036A1E501F0FE96E000E0320EA6E84C003
:1000D000EFFF84510A0806E183A303D08381839351
:1000E00001D083831E501E2A640801E11E6A9E9A75
:1000F00030EF00F041540D00415445300D004154A3
:1001000045300D00A4AAFED771CF1CF074CF01F0CA
:100110001CA202D0719871888FEF00F0F3D701C054
:1001200088F0A49A30EF00F05F5F5F5F5F5F5F5F12
:100130005F5F5F5F5F5F5F5F5F0A0A0D53746172AD
:1001400074696E67205570210A0D0000506F776545
:1001500072696E672055700A0D00436F6D73204FF2
:100160004B0A0D004552520A0D005475726E696EAD
:1001700067204F66660A0D0024504D544B333134CE
:100180002C302C312C302C302C302C302C302C308E
:100190002C302C302C302C302C302C302C302C307F
:1001A0002C302C302C302A32390D0A004750533A6B
:1001B000254C752C25662C25632C25662C25632C57
:1001C00025662C256600016603D0026602D007D0A2
:1001D000022A00C0EEFF012EFCD7022EFAD7FAEF5A
:1001E00000F0B3C0EAFFB2C0E9FF006A026AB4C01F
:1001F00001F0E9D749EF02F00900F5520DE0F6CF22
:10020000B2F0F7CFB3F0F550A4A8FED7736EB2C02A
:10021000F6FFB3C0F7FFF0D712000900F5520DE06A
:10022000F6CFB2F0F7CFB3F0F5509EA8FED7AD6E83
:10023000B2C0F6FFB3C0F7FFF0D71200EA6AB40EFF
:10024000E96EEF500EE0050E016E006A002EFED73B
:10025000012EFBD72E0E006E002EFED700D0EF2E03
:10026000F2D7120083B10CD0B25302E1B35308E0CD
:10027000B251D8B4B307B207010EB46FDFDFF2D7C3
:10028000B25304E1B35302E1000E01D0010E016E3E
:100290009AEF01F0B3C003F0B2C0E9FFB3C0EAFFC8
:1002A000EF5237E0B3C0B7F0B2C0B6F0B5C0B9F0A6
:1002B000B4C0B8F0B9C003F0B8C0E9FFB9C0EAFFF4
:1002C000EF5216E0B6C0E9FFB7C0EAFFEFCFBAF0D1
:1002D000B9C003F0B8C0E9FFB9C0EAFFEF50BA5D9A
:1002E00007E1B62BD8B4B72BB82BD8B4B92BE2D7CB
:1002F000B9C003F0B8C0E9FF03C0EAFFEF5205E15F
:10030000B2C001F0B3C002F007D0B22BD8B4B32B07
:10031000C1D7000E016E026EA3EF01F01E6A839139
:10032000F40EF66E000EF76E78DF030EB36FE80E74
:10033000B26F98D701520AE0B36B1F0EB26FB56B64
:10034000850EB46FA7D7015003D002D0000E016E06
:100350001200E4DF0152D8A40AD094908B90060ECC
:10036000B26FFA0EB46F6ADFB22FFBD7948053EFEF
:1003700002F0FE0EF66E000EF76E4FDF640EB46FE5
:100380005DDF83911E6A60EF02F094908B90060E01
:10039000B26FFA0EB46F52DFB22FFBD79480060E05
:1003A000B26FFA0EB46F4ADFB22FFBD77BEF02F0C9
:1003B000F86AD09E078E700ED36E9B9C9B9E1C6A23
:1003C000B886A00EAF6E010EB06EA60EAC6E900E8B
:1003D000AB6E7086A00E756E010E766EA60E726EF6
:1003E000900E716E1D6A929E898E1E6A8391846B37
:1003F00083938A6B8395946B936BB06BAF6BC15097
:10040000F00BC16E000E0F01386F3C6F396F3A6F01
:100410003B6F0101886B776A786A796A0FD00200B6
:100420001600000300854F4B000100890007008B78
:10043000244750524D43001A40950000000EF86EBC
:10044000040EF76E1E0EF66E0900F550006E000ADF
:1004500013E00900F550016EE8BE05D00F0BEA6EFF
:100460000900F5CFE9FF01BC090001AC0900F5CF97
:10047000EEFF004EE9D7F9D7F86A94809D8AA38AE7
:10048000C00EF2120001B36B1F0EB26F640EB46F98
:10049000A8D6280EF66E010EF76EAEDEB16BB15126
:1004A000180832E356D74C0EF66E010EF76EA4DE36
:1004B000180EB26FFA0EB46FC1DEB22FFBD759D748
:1004C0002DDF015206E05A0EF66E010EF76E94DE35
:1004D00005D0640EF66E010EF76E8EDE140EB26F4E
:1004E000FA0EB46FABDEB22FFBD76A0EF66E010EBA
:1004F000F76E82DE4AD7140EB26FFA0EB46F9EDE2C
:0E050000B22FFBD7B12BCBD7FFD7C8D7030044
:020000040030CA
:0E00000000F8181E00BF81000FC00FE00F4077
:00000001FF
;PIC18F45K22
;CRC=24BF  CREATED="02-Nov-13 16:14"
