:04000000F1EF0AF022
:08000800046ED8CF05F0E0CF33
:1000100006F00001E9CF0CF0EACF07F0E1CF08F0DD
:10002000E2CF09F0D9CF0AF0DACF0BF0F3CF12F01C
:10003000F4CF13F0FACF14F000C00EF001C00FF0AF
:1000400002C010F003C011F09DAA2AEF00F09EBA82
:100050005DEF00F0A3AA30EF00F0A4BAAFEF00F01C
:100060000EC000F00FC001F010C002F011C003F08C
:100070000CC0E9FF07C0EAFF078E08C0E1FF09C016
:10008000E2FF0AC0D9FF0BC0DAFF12C0F3FF13C0B2
:10009000F4FF14C0FAFF045006C0E0FF05C0D8FF0B
:1000A00010009EAAFED7ABCF1CF0AECF01F01CA271
:1000B00002D0AB98AB885EEF00F0F3D701C0A3F09D
:1000C000A3513C0803E1A46BA2831AD0A2A318D0C9
:1000D000A3513E080BE1036AA4513E0FE96E000EE6
:1000E0000320EA6EEF6AA293A2810AD0A451A42B46
:1000F000036A3E0FE96E000E0320EA6EA3C0EFFF15
:100100009E9A30EF00F041540D0A00005761697467
:10011000696E6720466F722050690D0A00005241D7
:10012000573A2025730A0D005041523A2025730A90
:100130000D00A4AAFED771CF1CF074CF01F01CA251
:1001400002D071987188B0EF00F0A4A8FED7736E4A
:10015000B6EF00F09EA8FED7AD6EBAEF00F0E9D77B
:1001600001C076F1010176510001EFD7010176510E
:100170000001F0D7A49A30EF00F05F5F5F5F5F5F30
:100180005F5F5F5F5F5F5F5F5F5F5F0A0A0D537472
:10019000617274696E67205570210D0A0000496E06
:1001A000697469616C697A696E67204750530D0AFA
:1001B0000000506F776572696E672055702052613C
:1001C000737062657272792050690D0A0000576180
:1001D0006974696E6720466F7220475053204669E4
:1001E000780D0A00475053204F6E6C696E650D0AFA
:1001F0000000526173706265727279205069204FFD
:100200006E6C696E650D0A0053746174696E6720C7
:100210005768696C65204C6F6F700D0A0000496E5D
:10022000204C4F4F500D0A00504F53542C25730D46
:100230000A00504F53542C25730D0A004750532089
:100240004661696C0D0A000024504D544B33313423
:100250002C302C312C302C302C302C302C302C30BD
:100260002C302C302C302C302C302C302C302C30AE
:100270002C302C302C302A32390D0A0024504D54A9
:100280004B3232302C3230302A324300010EEA6ECB
:10029000940EE96EEF500EE0050E016E006A002E1E
:1002A000FED7012EFBD72E0E006E002EFED700D0FB
:1002B000EF2EF2D712000900F5520DE0F6CF90F1C3
:1002C000F7CF91F1F550A4A8FED7736E90C1F6FF59
:1002D00091C1F7FFF0D7120095948C94080E016E2F
:1002E00000D00000018E10D0019E01019833000162
:1002F000D8B08C84D8A08C94018C06D0019C012E9F
:10030000F4D700D000008C84840EE96EE92EFED76D
:1003100000D0000001BEE8D701BCF0D79AEF01F091
:100320000900F5520CE0F6CF96F1F7CF97F1F5CF33
:1003300098F1D2D796C1F6FF97C1F7FFF1D7120017
:10034000480EF66E020EF76EEBDF7C0EF66E020EB6
:10035000F76EE6DF1200BC0E0101976F810E966FFB
:100360001D8C95860C0E006E002EFED700D000006E
:10037000962F05D0972F03D01D6A016A21D083B62E
:10038000F1D7080E006E986B008E0ED0009E0CD038
:10039000D89083B6D8809833008C06D0009C002E6D
:1003A000F7D79851016E0CD0840E00BE240E016E5A
:1003B000012EFED700D000BEE9D700BCEFD7E8D7AA
:1003C0000001120097C103F0010196C1E9FF97C136
:1003D000EAFFEF5239E097C19BF196C19AF199C1BA
:1003E0009DF198C19CF19DC103F09CC1E9FF9DC1A5
:1003F000EAFFEF5216E09AC1E9FF9BC1EAFFEFCF97
:100400009EF19DC103F09CC1E9FF9DC1EAFFEF5041
:100410009E5D07E19A2BD8B49B2B9C2BD8B49D2BC7
:10042000E2D79DC103F09CC1E9FF03C0EAFFEF5290
:1004300005E196C101F097C102F009D0962BD8B41E
:10044000972B0001BFD70101000E016E026E000163
:100450001200A295A2B574DF0101786B00017BDF69
:1004600001C077F1010177512408F8E177510D08B7
:1004700010E0036A78519425E96E95510320EA6EE5
:1004800077C1EFFF000167DF01C077F10101782B31
:10049000EDD7036A78519425E96E95510320EA6EF1
:1004A000EF6A0001A28595C197F194C196F1010E02
:1004B0000101996F790E986F000184DF01500210DD
:1004C000C9E0C8EF09F099C103F0010198C1E9FF43
:1004D00099C1EAFF9A51EF5C12E099C103F098C10B
:1004E000E9FF99C1EAFFEF5204E1000E016E026ECE
:1004F0000AD0982BD8B4992B0001E5D7010198C1F7
:1005000001F099C102F0000112000101A751D8B415
:1005100071D0006EAB51D8B46DD0002604E3810ECB
:10052000002668E204D07F0E005E64E363E0A8C1A9
:10053000AFF1AC51AF1BA88FAC8FAA51AE03F4CF73
:10054000B1F1A951AD03F4CF03F0F3CFB0F1AE0395
:10055000F350B127F450B023000E0322AA51AD038B
:10056000F350B127F450B023000E026A0322022296
:10057000A851AE03F350B027F4500322000E02221C
:10058000A851AD03F3500326F4500222000E016A75
:100590000122AA51AC03F350B027F4500322000EFD
:1005A00002220122A951AC03F3500326F450022287
:1005B000000E0122A851AC03F3500226F450012290
:1005C000002A01BE05D0B0370336023601360006D8
:1005D000000EB0AF0AD0032A02220122015005E129
:1005E000025003E1035001E1002AAFBF018EAFAF1B
:1005F000019E04D0006A016A026A036A00011200C7
:100600008E0E006EACC101F0ABC102F0036A015264
:1006100009E102C001F0026A080E005E015202E127
:10062000006A08D0D89001BE04D002360136000618
:10063000F9D7019E12000101AB51D8B4A5D0B76F14
:10064000AF51D8B4A1D0B75F05E37F0EB727D8B0BC
:100650009BD006D0810EB75FD8A096D0D8B494D0E6
:10066000B7C100F0016A026A036AB66BACC1B5F1AA
:10067000B58FADC1B4F1AEC1B3F1190EB76FB251C0
:10068000B35F0DE2010EB45F0AE2B55F08E2B65F48
:1006900006E2B62BB52BB42BB251B32728D0B151FB
:1006A000B45F12E2010EB55F0FE2B65F0DE2B62B4A
:1006B000B52BB151B427B251B32719E3B42B17E1CD
:1006C000B52B15E1B62B13D0B0518009B55F0EE202
:1006D000010EB65F0BE2B62BB0518009B527B151C0
:1006E000B427E9E3B52BE7E1B62BE5D70380B72FB5
:1006F00001D00BD0D890B337B437B537B637D890D0
:10070000033602360136B837BAD7B8A106D0D8902A
:10071000013202320332B83302D0000635E0B8BFEE
:100720001ED0D890B337B437B537B637B251B35FB0
:1007300007E2010EB45F04E2B55F02E2B65F1AE3BE
:10074000B151B45F05E2010EB55F02E2B65F12E39C
:10075000B0518009B55F03E2010EB65F0BE3032AD7
:1007600009E1022A07E1012A05E1002A0DE0013230
:1007700002320332ACC1B7F1B051B71BB7AF02D0F0
:10078000018E06D0019E04D0006A016A026A036AE3
:1007900000011200800ED8A202D00101B01B01019D
:1007A000B56BB66BACC1B4F1B051B41BAB51D8B49E
:1007B000DFD0B36F006EAF51D8B4E3D0B35FD8B41D
:1007C00083D03EE3B0C1B9F1B98FB1C1B8F1B2C1C4
:1007D000B7F1B66BD890B933B833B733B633B32F5C
:1007E000F8D7B4AF03D0B581E0D0B591B391B58956
:1007F000010EEA6EAE0EE96EEBD0B599B4BF0AD029
:10080000B3A113D0B933B833B733B633002AD8B451
:10081000C7D00BD0B9BF0CD0D890B637B737B837E0
:10082000B9370006D8B4BCD0F5D7B58D6DD0B59D1D
:10083000ACC1B4F1ACAF02D0B98FABD0B99FA9D0E5
:10084000AFC1B3F1AFC100F0AB51B35FACC1B9F10F
:10085000B98FADC1B8F1AEC1B7F1B66BD890B933AD
:10086000B833B733B633B32FF8D7B4AF03D0B583AB
:100870009CD0B593B391B58B010EEA6EB20EE96EC2
:10088000A7D0B59BB4BF0AD0B3A113D0B933B83346
:10089000B733B633002AD8B483D00BD0B9BF0CD04D
:1008A000D890B637B737B837B9370006D8B478D04C
:1008B000F5D7B58F29D0B59FB0C1B4F1B0AF02D094
:1008C000B98F67D0B99F65D0B0C1B9F1B98FB1C147
:1008D000B8F1B2C1B7F1B4AF04D0B99FB58565D056
:1008E000B595B66BB391010EEA6EAE0EE96E70D09F
:1008F000B4BF1CD0ACC1B4F1B3A106D0B933B83386
:10090000B733B633002A4CE0B6AF0BD0B72B09E1B2
:10091000B82B07E1B92B05E1B933B833B733002A57
:100920003FE0B5BD84D7B5BFC6D71CD0800EB91B7C
:10093000B9AF04D03AD0B0C1B4F10AD0ACC1B4F16F
:10094000B95306E1B85304E1B75302E1006A21D07C
:10095000B9BF08D0D890B637B737B837B937002EF7
:10096000F7D71ED0B4AF02D0B98F13D0B99F11D032
:10097000AFC100F0B0C1B9F1B1C1B8F1B2C1B7F1C6
:1009800008D0ABC100F0ACC1B9F1ADC1B8F1AEC196
:10099000B7F1B9C101F0B8C102F0B7C103F034D06A
:1009A000006A016A026A036A2FD0B66BB71FB81FCC
:1009B000B91FB61FB62B05E1B72B03E1B82B01E138
:1009C000B92BB5B112D7B5B354D7B5B589D7B3D70D
:1009D000EF50B72705E3B82B03E1B92BD8B4B381A7
:1009E000ED52EF50B82703E3B92BD8B4B381ED52E1
:1009F000EF50EFBE01D0800AB927D8B0B381B5B9A6
:100A0000FCD6B5BB3ED774D70001120001019F6B25
:100A10009E6B9D6B7F0E9C6FA36BA26BA16BA06BFB
:100A2000A481A493A495A66B9851991105E1006A3D
:100A3000016A026A036A0FD1A651A62B036A9825A0
:100A4000E96E99510320EA6EEFCFA5F1A553D8B412
:100A5000C5D0A4A10FD0A55120080CE0A491A551A8
:100A60002B0803E1A493ADD005D0A5512D0802E1D8
:100A7000A483A7D0A4B107D0A5512E0804E1A4B542
:100A800002D0A4859ED0A4B199D0A5512F08D8B08A
:100A900095D0A5513908D8A091D0300EA55FA4A556
:100AA00053D09FC1AAF19EC1A9F19DC1A8F19CC1DB
:100AB000A7F1AE6BAD6B200EAC6F820EAB6F000179
:100AC00024DD03C09FF102C09EF101C09DF100C072
:100AD0009CF10101AC6BA5C1ABF1000191DD03C03C
:100AE000AAF102C0A9F101C0A8F100C0A7F103C09A
:100AF000AEF102C0ADF101C0ACF100C0ABF19FC1DD
:100B0000B2F19EC1B1F19DC1B0F19CC1AFF193DDD5
:100B1000D892A3C1AEF1A2C1ADF1A1C1ACF1A0C107
:100B2000ABF103C0B2F102C0B1F101C0B0F100C03D
:100B3000AFF130DE03C0A3F102C0A2F101C0A1F108
:100B400000C0A0F139D00101AA6BA96B200EA86FDB
:100B5000820EA76FA3C1AEF1A2C1ADF1A1C1ACF1EC
:100B6000A0C1ABF10001D1DC03C0AAF102C0A9F120
:100B700001C0A8F100C0A7F10101AC6BA5C1ABF1A8
:100B800000013EDDD892AAC1AEF1A9C1ADF1A8C164
:100B9000ACF1A7C1ABF103C0B2F102C0B1F101C029
:100BA000B0F100C0AFF1F6DD03C0A3F102C0A2F1C5
:100BB00001C0A1F100C0A0F105D00101A4B101D094
:100BC0000DD000010101A651A62B036A9825E96EFC
:100BD00099510320EA6EEFCFA5F138D7A4A319D01D
:100BE000AA6BA96B800EA86F7F0EA76FA3C1AEF191
:100BF000A2C1ADF1A1C1ACF1A0C1ABF1000185DC96
:100C000003C0A3F102C0A2F101C0A1F100C0A0F194
:100C100001019A519B1117E0A6530CE0A6079AC157
:100C2000E9FF9BC1EAFFA6519825EF6E000E9921BE
:100C3000EC6E09D09AC1E9FF9BC1EAFF99C1ECFFB4
:100C4000ED5298C1EFFFA0C100F0A1C101F0A2C117
:100C500002F0A3C103F0000112008E0E006E01012C
:100C6000A251005EA3C102F0A4C101F0028E0052A5
:100C700009E0D890025202E1015204E0023201324E
:100C8000002EF7D7A3AF05D0011E021E012AD8B44B
:100C9000022A000112000101A451A603F3CF01F0C2
:100CA000F4CF00F0A703F3500026A551A603F3509C
:100CB0000020026E000112000101A551B608A56FC7
:100CC000036AA6C1A9F1A68FD890A633A733A8338B
:100CD0000332023201320032A52FF6D7A9AF0BD072
:100CE000001E011E021E031E002AD8B4012AD8B419
:100CF000022AD8B4032A000104EF07F0D8B204D0C6
:100D0000010EEA6EAD0EE96E006A016A026A036ABC
:100D10000101AD6BAE6BAF6BB06BAC51AB11AA11F7
:100D2000A9112CE0200EB16FD890A537A637A737B0
:100D3000A837AD37AE37AF37B037AC51B05D08E14B
:100D4000AB51AF5D05E1AA51AE5D02E1A951AD5DC8
:100D50000FE3A951AD5FAA51D8A0AA3DAE5FAB5138
:100D6000D8A0AB3DAF5FAC51D8A0AC3DB05FD88050
:100D70000036013602360336B12FD6D7ADC1EFFFAC
:100D8000AEC1ECFFAFC1ECFFB0C1ECFF000112003F
:100D90008EC1EAFF8DC1E9FF0101A5C1EFFFE92A7C
:100DA000D8B4EA2AEF6A8D2BD8B48E2B000112003A
:100DB000E95001019D6F9C519F6F1CE09BC1AAF1FE
:100DC0009AC1A9F199C1A8F198C1A7F1AE6BAD6B19
:100DD000200EAC6F820EAB6F000185EC02F003C0F9
:100DE0009BF102C09AF101C099F100C098F1010194
:100DF0009F2FE4D79BC1A8F19AC1A7F199C1A6F191
:100E000098C1A5F1000158D703C09BF102C09AF127
:100E100001C099F100C098F101019BAF0DD09D0771
:100E20009D8B981F991F9A1F9B1F982BD8B4992BA5
:100E3000D8B49A2BD8B49B2B3B0EA46F9A0EA36FF9
:100E4000CA0EA26FA16B0A0E9F6F9C51D8B49D2B46
:100E5000D882010EEA6E980EE96E9BC1A8F19AC184
:100E6000A7F199C1A6F198C1A5F1A4C1ACF1A3C1A4
:100E7000ABF1A2C1AAF1A1C1A9F100013FDF01506C
:100E8000005213E101019C299F5DD8A402D000010A
:100E90000CD09D510DE00F0B9F5D01E040E29DBF26
:100EA0003ED09DBD05D0200E34D0200E01019D17EF
:100EB0009DAB0ED09D9B9C51D8A49D0700509D6F6B
:100EC0002D0EA56F000164DF01019D51006E9D6B29
:100ED0009C519F5D0CE100509D6F2E0EA56F00018F
:100EE00057DF01019D51006E200E9D17000E300E40
:100EF0009DAB0FD09D9B9C51D8A49D0700509D6F2A
:100F00002D0EA56F000144DF01019D51006E9D6B08
:100F1000300E002600C0A5F100013ADF0101D89291
:100F2000A4C1A8F1A3C1A7F1A2C1A6F1A1C1A5F1D5
:100F3000AC6BAB6BAA6B0A0EA96F0001DFDE03C0BE
:100F4000A4F102C0A3F101C0A2F100C0A1F101010E
:100F50009F2F7ED70001120095C199F194C198F19D
:100F60002C0E01019A6F000163EC02F0010E0101E9
:100F70000124816F000E0220826F82C199F181C12C
:100F800098F12C0E9A6F000163EC02F0010E010142
:100F90000124816F000E0220826F81C1E9FF82C1AE
:100FA000EAFFEF50410804E10001A28706D00101E9
:100FB0000001A297000E016EE3D182C199F181C1B7
:100FC00098F12C0E01019A6F000163EC02F0010E02
:100FD00001010124816F000E0220826F82C199F10C
:100FE00081C198F19B6B9A6B000110DD03C08BF1FE
:100FF00002C08AF101C089F100C088F182C199F173
:1010000081C198F12C0E01019A6F000163EC02F08E
:10101000010E01010124816F000E0220826F81C147
:10102000E9FF82C1EAFFEF504E0803E14E0E876FE1
:1010300009D081C1E9FF82C1EAFFEF50530802E104
:10104000530E876F82C199F181C198F12C0E9A6F6E
:10105000000163EC02F0010E01010124816F000E1A
:101060000220826F82C199F181C198F19B6B9A6BCA
:101070000001CCDC03C086F102C085F101C084F11F
:1010800000C083F182C199F181C198F12C0E010158
:101090009A6F000163EC02F0010E01010124816FDF
:1010A000000E0220826F81C1E9FF82C1EAFFEF508A
:1010B000570803E1570E8C6F09D081C1E9FF82C147
:1010C000EAFFEF50450802E1450E8C6F8BC1AEF18F
:1010D0008AC1ADF189C1ACF188C1ABF1B26BB16B22
:1010E000480EB06F850EAF6F00011BEC03F003C01C
:1010F000A5F102C0A4F101C0A3F100C0A2F1ADDDD1
:1011000001C098F101019E6B98C19DF19EC1A5F1AE
:1011100098C1A4F1A76B640EA66F0001BCDD02C0EC
:10112000ACF101C0ABF1000100EC03F0D8828BC13F
:10113000AEF18AC1ADF189C1ACF188C1ABF103C098
:10114000B2F102C0B1F101C0B0F100C0AFF1CAEC20
:1011500003F003C09CF102C09BF101C09AF100C0F2
:1011600099F19CC1AEF19BC1ADF19AC1ACF199C1AD
:10117000ABF10101B26BB16B700EB06F840EAF6F4B
:1011800000011BEC03F003C0A0F102C09FF101C0FD
:101190009EF100C09DF10101AC6B98C1ABF1000163
:1011A00000EC03F0D892A0C1AEF19FC1ADF19EC199
:1011B000ACF19DC1ABF103C0B2F102C0B1F101C00D
:1011C000B0F100C0AFF1CAEC03F003C08BF102C074
:1011D0008AF101C089F100C088F1010187515308EB
:1011E00003E08751570803E18951800A896F86C15E
:1011F000AEF185C1ADF184C1ACF183C1ABF1B26B8D
:10120000B16B480EB06F850EAF6F00011BEC03F0A1
:1012100003C0A5F102C0A4F101C0A3F100C0A2F176
:101220001CDD01C098F101019E6B98C19DF19EC12A
:10123000A5F198C1A4F1A76B640EA66F00012BDD88
:1012400002C0ACF101C0ABF1000100EC03F0D882A8
:1012500086C1AEF185C1ADF184C1ACF183C1ABF102
:1012600003C0B2F102C0B1F101C0B0F100C0AFF1F2
:10127000CAEC03F003C09CF102C09BF101C09AF1DB
:1012800000C099F19CC1AEF19BC1ADF19AC1ACF126
:1012900099C1ABF10101B26BB16B700EB06F840EEE
:1012A000AF6F00011BEC03F003C0A0F102C09FF17F
:1012B00001C09EF100C09DF10101AC6B98C1ABF182
:1012C000000100EC03F0D892A0C1AEF19FC1ADF1D6
:1012D0009EC1ACF19DC1ABF103C0B2F102C0B1F14E
:1012E00001C0B0F100C0AFF1CAEC03F003C086F159
:1012F00002C085F101C084F100C083F101018C516D
:10130000530803E08C51570803E18451800A846F2D
:1013100086C125F085C124F084C123F083C122F069
:101320008BC121F08AC120F089C11FF088C11EF055
:1013300097C18EF196C18DF1050EE96E8BC19BF1BF
:101340008AC19AF189C199F188C198F1040E9C6F04
:1013500000012EDD2C0E0101A56F000119DD050E27
:10136000E96E86C19BF185C19AF184C199F183C16F
:1013700098F1040E01019C6F00011ADD010E016E4F
:10138000D1EF09F091C195F190C194F129EF02F0EC
:1013900091C195F190C194F193C197F192C196F1E9
:1013A000DBD5015012000900F6CF91F1F7CF92F191
:1013B000F550A4A8FED7736E91C1F6FF92C1F7FF56
:1013C0000101902F01D002D00001EDD700011200E1
:1013D000EF5210E0EACF91F1E9CF90F1EF50A4A8DD
:1013E000FED7736E91C1EAFF90C1E9FFE92AD8B434
:1013F000EA2AEED712000101916BAE0E906F010E3A
:10140000936F120E926F0001BDDF01523BE1949683
:101410008B7694948B741E0EF66E010EF76E050E8D
:101420000101906F0001BFDFEA6AAE0EE96ED0DF06
:101430000A0EA4A8FED7736E0D0EA4A8FED7736E75
:10144000280EF66E010EF76E050E0101906F000179
:10145000AADF010EEA6E120EE96EBADF0A0EA4A828
:10146000FED7736E0D0EA4A8FED7736E020E010197
:10147000906FFA0E946F000146EC01F00101902F7D
:10148000F8D7BAD70001B6EF0BF00900F5520DE01E
:10149000F6CF90F1F7CF91F1F5509EA8FED7AD6E43
:1014A00090C1F6FF91C1F7FFF0D79EEF0AF001015E
:1014B000925302E1935337E00001A2A128D0010129
:1014C000976B3E0E966F91C199F190C198F1000112
:1014D000E2EC01F0015002100AE0C80E0101946F25
:1014E000000146EC01F0010E016E1FD010D0010189
:1014F000976B3E0E966F996BA80E986F0001E2EC09
:1015000001F00150021003E0000E016E0ED0010147
:101510009251D8B493079207010E946F000146ECE4
:1015200001F0C5D70101000E016E0001A8EF0AF01D
:10153000A291060EF66E010EF76EA7D70101916B10
:10154000A50E906F010E936FF40E926F0001AFD74E
:101550000150ACEF0AF0ECD7015215E194928B7276
:101560000C0EF66E010EF76E5BEC01F0020E01013F
:10157000906FFA0E946F000146EC01F00101902F7C
:10158000F8D70001E8D794928B82BDEF0BF00900E9
:10159000F6CF91F1F7CF92F1F5509EA8FED7AD6E40
:1015A00091C1F6FF92C1F7FF0101902F01D002D047
:1015B0000001EDD70001FAEF0BF0EF5210E0EACF97
:1015C00091F1E9CF90F1EF509EA8FED7AD6E91C199
:1015D000EAFF90C1E9FFE92AD8B4EA2AEED7FFEF83
:1015E0000BF0F86AD09E078E700ED36E9B9C9B9E6C
:1015F0001C6AB886220EAF6E000EB06EA60EAC6EE0
:10160000900EAB6E7086A00E756E010E766EA60EF5
:10161000726E900E716E1D6A95948C84A291A46B6B
:10162000A2930101786B0001A2950101826B816B8D
:101630000001A29701018E6B8D6BC150F00BC16E42
:10164000000E0F01386F3C6F396F3A6F3B6F01012D
:10165000886B776A786A796A21D0020016000001E7
:1016600000A3000E00A54F4B004552524F52004EB2
:10167000554C4C001001126C61743D313233266CB4
:101680006E673D343536000201760000070179248B
:101690004750524D43000A4183000000000EF86E8F
:1016A000160EF76E5A0EF66E0900F550006E000A1F
:1016B00013E00900F550016EE8BE05D00F0BEA6E8D
:1016C0000900F5CFE9FF01BC090001AC0900F5CF25
:1016D000EEFF004EE9D7F9D7F86A8F6B8F510608F5
:1016E0000EE394968B7694948B7494928B72640E22
:1016F000946F000146EC01F001018F2BEFD7F29CB3
:10170000F29EF2BEFDD7010E616EF19E0A0E946F3D
:10171000000146EC01F0F292F090F092C00EF2124D
:1017200094908B8094928B9294968B9694948B94B5
:101730009D8AA38AF2127A0EF66E010EF76E5BECAA
:1017400001F09E0EF66E010EF76E5BEC01F0A0EC60
:1017500001F0B20EF66E010EF76E5BEC01F0CE0EEC
:10176000F66E010EF76E5BEC01F045D6E40EF66EF8
:10177000010EF76E5BEC01F0EED6F20EF66E010E86
:10178000F76E5BEC01F0080EF66E020EF76E5BEC86
:1017900001F01E0EF66E020EF76E5BEC01F0010119
:1017A000916BAE0E906F010E936F120E926F00014F
:1017B000E9DD01523EE0280EF66E020EF76E050ED0
:1017C0000101906F0001EFDD010EEA6E120EE96E6D
:1017D000FFDD0D0EA4A8FED7736E0A0EA4A8FED7D7
:1017E000736E320EF66E020EF76E050E0101906FEB
:1017F0000001CDD6010EEA6E120EE96EDED60D0E98
:101800009EA8FED7AD6E0A0E9EA8FED7AD6EA2A111
:101810000DD0EA6A3E0EE96EDBDD0D0EA4A8FED700
:10182000736E0A0EA4A8FED7736EA29194948B8453
:1018300008D094948B943C0EF66E020EF76E5BEC1F
:1018400001F094968B76020E0101906FFA0E946F60
:10185000000146EC01F00101902FF8D7000199D763
:02186000030083
:020000040030CA
:0E00000000F8181E00BF81000FC00FE00F4077
:00000001FF
;PIC18F45K22
;CRC=1E04  CREATED="03-Dec-13 18:20"
