:04000000DAEF0CF037
:08000800046ED8CF05F0E0CF33
:1000100006F00001E9CF0CF0EACF07F0E1CF08F0DD
:10002000E2CF09F0D9CF0AF0DACF0BF0F3CF12F01C
:10003000F4CF13F0FACF14F000C00EF001C00FF0AF
:1000400002C010F003C011F09DAA2AEF00F09EBA82
:100050005DEF00F0A3AA30EF00F0A4BA8EEF00F03D
:100060000EC000F00FC001F010C002F011C003F08C
:100070000CC0E9FF07C0EAFF078E08C0E1FF09C016
:10008000E2FF0AC0D9FF0BC0DAFF12C0F3FF13C0B2
:10009000F4FF14C0FAFF045006C0E0FF05C0D8FF0B
:1000A00010009EAAFED7ABCF1CF0AECF01F01CA271
:1000B00002D0AB98AB885EEF00F0F3D701C0A4F09C
:1000C000036A3E503F0FE96E000E0320EA6EA4C0A3
:1000D000EFFFA4510A0806E1A3A303D0A381A393D1
:1000E00001D0A3833E503E2A640801E13E6A9E9AF5
:1000F00030EF00F041540D00415445300D004154A3
:1001000045300D00A4AAFED771CF1CF074CF01F0CA
:100110001CA202D0719871888FEF00F0F3D701C054
:10012000AEF0A49A30EF00F0340A0D0041542B4891
:10013000545450494E49540D000046616C73653467
:100140000A0D0000350A0D0041542B4854545050FC
:100150004152413D22434944222C310D0000466169
:100160006C7365350A0D0000310A0D0041542B53A4
:10017000415042523D332C312C22434F4E54595062
:1001800045222C2247505253220D000046616C73C9
:1001900065310A0D0000320A0D0041542B534150C5
:1001A00042523D332C312C2241504E222C225741B9
:1001B000502E5741524944220D0046616C736532FE
:1001C0000A0D0000330A0D0041542B534150425296
:1001D0003D312C310D0046616C7365330A0D000012
:1001E00041542B485454505445524D0D0000415435
:1001F0002B53415042523D302C310D005F5F5F5F09
:100200005F5F5F5F5F5F5F5F5F5F5F5F5F0A0A0DFA
:100210005374617274696E67205570210A0D000075
:10022000506F776572696E672055700A0D00436FD5
:100230006D73204F4B0A0D004552520A0D00415478
:100240002B48545450504152413D2255524C222C7F
:100250002225733F2573220D000046616C736535BE
:1002600036360A0D000041542B4854545041435433
:10027000494F4E3D300D0000535543434553530DF8
:100280000A004641494C21210A0D00005374616364
:100290006B4275737921210A0D004572726F7220CD
:1002A000436F64653A20254C750A0D0054696D65ED
:1002B0004F757421210A0D0024504D544B333134B5
:1002C0002C302C312C302C302C302C302C302C304D
:1002D0002C302C302C302C302C302C302C302C303E
:1002E0002C302C302C302A32390D0A0024504D5439
:1002F0004B3232302C3230302A3243006C61743D44
:1003000025362E3466266C6E673D25362E34660003
:10031000016603D0026602D007D0022A00C0EEFFB9
:10032000012EFCD7022EFAD79FEF01F0BAC1EAFFE7
:10033000B9C1E9FF006A026ABBC101F0E9D7120046
:100340000900F5520DE0F6CFB9F1F7CFBAF1F5504B
:10035000A4A8FED7736EB9C1F6FFBAC1F7FFF0D7F4
:1003600012000900F5520DE0F6CFB9F1F7CFBAF15E
:10037000F5509EA8FED7AD6EB9C1F6FFBAC1F7FF22
:10038000F0D71200010EEA6EBD0EE96EEF500EE0DE
:10039000050E016E006A002EFED7012EFBD72E0E31
:1003A000006E002EFED700D0EF2EF2D71200A3B1C0
:1003B00011D00101B95305E1BA53D8A402D000010C
:1003C00009D0B951D8B4BA07B907010EBD6F000101
:1003D000D9DFEDD70101B95304E1BA5302E1000EB0
:1003E00001D0010E016E00014BEF02F0C0C103F01D
:1003F0000101BFC1E9FFC0C1EAFFEF5239E0C0C14E
:10040000C4F1BFC1C3F1C2C1C6F1C1C1C5F1C6C10A
:1004100003F0C5C1E9FFC6C1EAFFEF5216E0C3C150
:10042000E9FFC4C1EAFFEFCFC7F1C6C103F0C5C100
:10043000E9FFC6C1EAFFEF50C75D07E1C32BD8B49F
:10044000C42BC52BD8B4C62BE2D7C6C103F0C5C197
:10045000E9FF03C0EAFFEF5205E1BFC101F0C0C1EF
:1004600002F009D0BF2BD8B4C02B0001BFD70101C7
:10047000000E016E026E000112003E6AA391F40E9E
:10048000F66E000EF76E6DDF030E0101BA6FE80E17
:10049000B96F00018CD701520CE00101C06B3F0E17
:1004A000BF6FC26BA50EC16F0001A0DF015003D06A
:1004B00002D0000E016E1200E0DF0152D8A411D06C
:1004C00094948B8495948C94060E0101B96FFA0E66
:1004D000BD6F000157DF0101B92FF9D795849494BE
:1004E0008B94000173EF0DF0929E899E080E016EB1
:1004F00000D00000018E10D0019E0101C133000127
:10050000D8B0898ED8A0899E018C06D0019C012E7E
:10051000F4D700D00000898E010E006EE96AE92E42
:10052000FED7002EFBD70E0EE96EE92EFED7000097
:1005300001BEE2D701BCEAD7A8EF02F00900F552EC
:100540000CE0F6CFBFF1F7CFC0F1F5CFC1F1CCD7BA
:10055000BFC1F6FFC0C1F7FFF1D71200B80EF66EAB
:10056000020EF76EEBDFEC0EF66E020EF76EE6DFB4
:100570001200FE0EF66E000EF76EF3DE640E010141
:10058000BD6F0001FFDEA3913E6A89EF0DF03E6A68
:10059000A39112000101BB5302E1BC5333E00001FF
:1005A000A3A125D00101C06B3F0EBF6FBAC1C2F13C
:1005B000B9C1C1F100011ADF0150021009E0C80EF3
:1005C0000101BD6F0001DEDE010E016E1ED00FD0F5
:1005D0000101C06B3F0EBF6FC26BA80EC16F00015F
:1005E00005DF0150021003E0000E016E0ED0010184
:1005F000BB51D8B4BC07BB07010EBD6F0001C2DE02
:10060000C9D70101000E016E00011200680EF66EDE
:10061000010EF76E95DEBBDF6C0EF66E010EF76E07
:10062000A0DE0101BA6BA50EB96F0B0EBC6FB80E40
:10063000BB6F0001AFDF015205E18C0EF66E010EBB
:10064000F76E7EDE020E0101B96FFA0EBD6F00017A
:1006500099DE0101B92FF9D7960EF66E010EF76EED
:1006600000016EDE94DF9A0EF66E010EF76E79DEF3
:100670000101BA6BA50EB96F0B0EBC6FB80EBB6F44
:10068000000188DF015205E1BA0EF66E010EF76E29
:1006900057DE020E0101B96FFA0EBD6F000172DE66
:1006A0000101B92FF9D7C40EF66E010EF76E0001E5
:1006B00047DE6DDFC80EF66E010EF76E52DE0101E9
:1006C000BA6BA50EB96F0B0EBC6FB80EBB6F0001F5
:1006D00061DF015205E1D60EF66E010EF76E30DED7
:1006E000040E0101B96FFA0EBD6F00014BDE01016E
:1006F000B92FF9D700011200280EF66E010EF76E21
:100700001FDE45DF2C0EF66E010EF76E2ADE0101AC
:10071000BA6BA50EB96F0B0EBC6FB80EBB6F0001A4
:1007200039DF015205E13A0EF66E010EF76E08DE72
:10073000020E0101B96FFA0EBD6F000123DE010147
:10074000B92FF9D7440EF66E010EF76E0001F8DDF1
:100750001EDF480EF66E010EF76E03DE0101BA6B66
:10076000A50EB96F0B0EBC6FB80EBB6F000112DF88
:10077000015205E15E0EF66E010EF76EE1DD020E2E
:100780000101B96FFA0EBD6F0001FCDD0101B92F47
:10079000F9D70001A2EF0DF00900F6CFBAF1F7CFBB
:1007A000BBF1F5509EA8FED7AD6EBAC1F6FFBBC136
:1007B000F7FF0101B92F01D002D00001EDD70001F0
:1007C000D7EF0DF0EF5210E0EACFBAF1E9CFB9F16F
:1007D000EF509EA8FED7AD6EBAC1EAFFB9C1E9FFDE
:1007E000E92AD8B4EA2AEED71200EF5210E0EACF95
:1007F000BAF1E9CFB9F1EF50A4A8FED7736EBAC130
:10080000EAFFB9C1E9FFE92AD8B4EA2AEED7F4EF42
:100810000DF05E0E0101C06FC10EBF6F1D8C928A7C
:100820001A0E006E002EFED70000BF2F05D0C02F7D
:1008300003D01D6A016A2AD080BAF2D7080E006E72
:10084000C16B008E0ED0009E0CD0D89080BAD8809C
:10085000C133008C06D0009C002EF7D7C151016E29
:1008600015D0010EE96E000E00BE550E016E012E70
:10087000FED7E92EF8D70D0E00BE030E016E012E35
:10088000FED700BEE0D700BCE6D7DFD700011200DC
:10089000A395A3B563DEDA6BBCDF01C0D9F0D951F3
:1008A0002408FAE1D9510D0810E0036ADA51010178
:1008B000BD25E96EBE510320EA6ED9C0EFFF0001ED
:1008C000A8DF01C0D9F0DA2BEDD7036ADA510101B4
:1008D000BD25E96EBE510320EA6EEF6A0001A385D3
:1008E000BEC1C0F1BDC1BFF10101C26BDB0EC16F62
:1008F00000017CDD01500210CCE01CEF0CF0C2C105
:1009000003F00101C1C1E9FFC2C1EAFFC351EF5CBD
:1009100012E0C2C103F0C1C1E9FFC2C1EAFFEF5258
:1009200004E1000E016E026E0AD0C12BD8B4C22BB6
:100930000001E5D70101C1C101F0C2C102F000010F
:1009400012000101D251D8B471D0006ED651D8B482
:100950006DD0002604E3810E002668E204D07F0EED
:10096000005E64E363E0D3C1DAF1D751DA1BD38FC1
:10097000D78FD551D903F4CFDCF1D451D803F4CFBC
:1009800003F0F3CFDBF1D903F350DC27F450DB2382
:10099000000E0322D551D803F350DC27F450DB239B
:1009A000000E026A03220222D351D903F350DB273F
:1009B000F4500322000E0222D351D803F350032631
:1009C000F4500222000E016A0122D551D703F350E0
:1009D000DB27F4500322000E02220122D451D70358
:1009E000F3500326F4500222000E0122D351D70304
:1009F000F3500226F4500122002A01BE05D0DB3755
:100A00000336023601360006000EDBAF0AD0032A99
:100A100002220122015005E1025003E1035001E1ED
:100A2000002ADABF018EDAAF019E04D0006A016AA3
:100A3000026A036A000112008E0E006ED7C101F037
:100A4000D6C102F0036A015209E102C001F0026A54
:100A5000080E005E015202E1006A08D0D89001BE83
:100A600004D0023601360006F9D7019E12000101BA
:100A7000D651D8B4A5D0E26FDA51D8B4A1D0E25F94
:100A800005E37F0EE227D8B09BD006D0810EE25F4F
:100A9000D8A096D0D8B494D0E2C100F0016A026A1E
:100AA000036AE16BD7C1E0F1E08FD8C1DFF1D9C1B2
:100AB000DEF1190EE26FDD51DE5F0DE2010EDF5F48
:100AC0000AE2E05F08E2E15F06E2E12BE02BDF2BC8
:100AD000DD51DE2728D0DC51DF5F12E2010EE05F3E
:100AE0000FE2E15F0DE2E12BE02BDC51DF27DD516E
:100AF000DE2719E3DF2B17E1E02B15E1E12B13D003
:100B0000DB518009E05F0EE2010EE15F0BE2E12BB9
:100B1000DB518009E027DC51DF27E9E3E02BE7E147
:100B2000E12BE5D70380E22F01D00BD0D890DE3740
:100B3000DF37E037E137D890033602360136E33746
:100B4000BAD7E3A106D0D890013202320332E333A0
:100B500002D0000635E0E3BF1ED0D890DE37DF3785
:100B6000E037E137DD51DE5F07E2010EDF5F04E2CF
:100B7000E05F02E2E15F1AE3DC51DF5F05E2010EB4
:100B8000E05F02E2E15F12E3DB518009E05F03E234
:100B9000010EE15F0BE3032A09E1022A07E1012AC2
:100BA00005E1002A0DE0013202320332D7C1E2F141
:100BB000DB51E21BE2AF02D0018E06D0019E04D0D1
:100BC000006A016A026A036A00011200800ED8A25C
:100BD00002D00101DB1B0101E06BE16BD7C1DFF14A
:100BE000DB51DF1BD651D8B4DFD0DE6F006EDA5197
:100BF000D8B4E3D0DE5FD8B483D03EE3DBC1E4F108
:100C0000E48FDCC1E3F1DDC1E2F1E16BD890E433C4
:100C1000E333E233E133DE2FF8D7DFAF03D0E081F7
:100C2000E0D0E091DE91E089010EEA6ED90EE96E26
:100C3000EBD0E099DFBF0AD0DEA113D0E433E33379
:100C4000E233E133002AD8B4C7D00BD0E4BF0CD0D4
:100C5000D890E137E237E337E4370006D8B4BCD0A8
:100C6000F5D7E08D6DD0E09DD7C1DFF1D7AF02D0D1
:100C7000E48FABD0E49FA9D0DAC1DEF1DAC100F095
:100C8000D651DE5FD7C1E4F1E48FD8C1E3F1D9C119
:100C9000E2F1E16BD890E433E333E233E133DE2F6A
:100CA000F8D7DFAF03D0E0839CD0E093DE91E08BF8
:100CB000010EEA6EDD0EE96EA7D0E09BDFBF0AD021
:100CC000DEA113D0E433E333E233E133002AD8B4B6
:100CD00083D00BD0E4BF0CD0D890E137E237E337B4
:100CE000E4370006D8B478D0F5D7E08F29D0E09F5C
:100CF000DBC1DFF1DBAF02D0E48F67D0E49F65D0CA
:100D0000DBC1E4F1E48FDCC1E3F1DDC1E2F1DFAF8F
:100D100004D0E49FE08565D0E095E16BDE91010EA3
:100D2000EA6ED90EE96E70D0DFBF1CD0D7C1DFF1FB
:100D3000DEA106D0E433E333E233E133002A4CE0B2
:100D4000E1AF0BD0E22B09E1E32B07E1E42B05E156
:100D5000E433E333E233002A3FE0E0BD84D7E0BF71
:100D6000C6D71CD0800EE41BE4AF04D03AD0DBC160
:100D7000DFF10AD0D7C1DFF1E45306E1E35304E128
:100D8000E25302E1006A21D0E4BF08D0D890E137F5
:100D9000E237E337E437002EF7D71ED0DFAF02D0BB
:100DA000E48F13D0E49F11D0DAC100F0DBC1E4F18D
:100DB000DCC1E3F1DDC1E2F108D0D6C100F0D7C15A
:100DC000E4F1D8C1E3F1D9C1E2F1E4C101F0E3C13A
:100DD00002F0E2C103F034D0006A016A026A036AD9
:100DE0002FD0E16BE21FE31FE41FE11FE12B05E1C0
:100DF000E22B03E1E32B01E1E42BE0B112D7E0B3F6
:100E000054D7E0B589D7B3D7EF50E22705E3E32BFA
:100E100003E1E42BD8B4DE81ED52EF50E32703E386
:100E2000E42BD8B4DE81ED52EF50EFBE01D0800A42
:100E3000E427D8B0DE81E0B9FCD6E0BB3ED774D75A
:100E4000000112000101CA6BC96BC86B7F0EC76F2E
:100E5000CE6BCD6BCC6BCB6BCF81CF93CF95D16B62
:100E6000C351C41105E1006A016A026A036A0FD125
:100E7000D151D12B036AC325E96EC4510320EA6E18
:100E8000EFCFD0F1D053D8B4C5D0CFA10FD0D0512F
:100E900020080CE0CF91D0512B0803E1CF93ADD0C7
:100EA00005D0D0512D0802E1CF83A7D0CFB107D014
:100EB000D0512E0804E1CFB502D0CF859ED0CFB15E
:100EC00099D0D0512F08D8B095D0D0513908D8A09A
:100ED00091D0300ED05FCFA553D0CAC1D5F1C9C1D2
:100EE000D4F1C8C1D3F1C7C1D2F1D96BD86B200EF0
:100EF000D76F820ED66F000124DD03C0CAF102C095
:100F0000C9F101C0C8F100C0C7F10101D76BD0C160
:100F1000D6F1000191DD03C0D5F102C0D4F101C0CA
:100F2000D3F100C0D2F103C0D9F102C0D8F101C0A1
:100F3000D7F100C0D6F1CAC1DDF1C9C1DCF1C8C129
:100F4000DBF1C7C1DAF193DDD892CEC1D9F1CDC1C1
:100F5000D8F1CCC1D7F1CBC1D6F103C0DDF102C0CD
:100F6000DCF101C0DBF100C0DAF130DE03C0CEF10C
:100F700002C0CDF101C0CCF100C0CBF139D00101EC
:100F8000D56BD46B200ED36F820ED26FCEC1D9F148
:100F9000CDC1D8F1CCC1D7F1CBC1D6F10001D1DCA4
:100FA00003C0D5F102C0D4F101C0D3F100C0D2F129
:100FB0000101D76BD0C1D6F100013EDDD892D5C179
:100FC000D9F1D4C1D8F1D3C1D7F1D2C1D6F103C080
:100FD000DDF102C0DCF101C0DBF100C0DAF1F6DDC9
:100FE00003C0CEF102C0CDF101C0CCF100C0CBF105
:100FF00005D00101CFB101D00DD000010101D151C7
:10100000D12B036AC325E96EC4510320EA6EEFCFEA
:10101000D0F138D7CFA319D0D56BD46B800ED36F56
:101020007F0ED26FCEC1D9F1CDC1D8F1CCC1D7F1ED
:10103000CBC1D6F1000185DC03C0CEF102C0CDF1F9
:1010400001C0CCF100C0CBF10101C551C61117E0C0
:10105000D1530CE0D107C5C1E9FFC6C1EAFFD151A8
:10106000C325EF6E000EC421EC6E09D0C5C1E9FFA7
:10107000C6C1EAFFC4C1ECFFED52C3C1EFFFCBC153
:1010800000F0CCC101F0CDC102F0CEC103F00001EF
:1010900012008E0E006E0101CB51005ECCC102F039
:1010A000CDC101F0028E005209E0D890025202E157
:1010B000015204E002320132002EF7D7CCAF05D046
:1010C000011E021E012AD8B4022A000112000101E9
:1010D000CD51CF03F3CF01F0F4CF00F0D003F350A4
:1010E0000026CE51CF03F3500020026E0001120003
:1010F000F0C0EAFFEFC0E9FF0101CEC1EFFFE92A2E
:10110000D8B4EA2AEF6A0001EF2BD8B4F02B120012
:101110000900F6CFC2F1F7CFC3F1F5CFCEF1E8DF8A
:10112000C2C1F6FFC3C1F7FF0101C12F01D002D038
:101130000001EED7000112000101CE51B608CE6FBA
:10114000036ACFC1D2F1CF8FD890CF33D033D13310
:101150000332023201320032CE2FF6D7D2AF0BD09B
:10116000001E011E021E031E002AD8B4012AD8B494
:10117000022AD8B4032A00011200D8B204D0010E0A
:10118000EA6ED60EE96E006A016A026A036A01011C
:10119000D66BD76BD86BD96BD551D411D311D21173
:1011A0002CE0200EDA6FD890CE37CF37D037D1373A
:1011B000D637D737D837D937D551D95D08E1D4518B
:1011C000D85D05E1D351D75D02E1D251D65D0FE381
:1011D000D251D65FD351D8A0D33DD75FD451D8A038
:1011E000D43DD85FD551D8A0D53DD95FD880003641
:1011F000013602360336DA2FD6D7D6C1EFFFD7C174
:10120000ECFFD8C1ECFFD9C1ECFF00011200E9509E
:101210000101C66FC551C86F1CE0C4C1D5F1C3C17F
:10122000D4F1C2C1D3F1C1C1D2F1D96BD86B200EB8
:10123000D76F820ED66F0001A1EC04F003C0C4F199
:1012400002C0C3F101C0C2F100C0C1F10101C82F49
:10125000E4D7C4C1D1F1C3C1D0F1C2C1CFF1C1C182
:10126000CEF1000169DF03C0C4F102C0C3F101C0C7
:10127000C2F100C0C1F10101C4AF0DD0C607C68BD9
:10128000C11FC21FC31FC41FC12BD8B4C22BD8B4E7
:10129000C32BD8B4C42B3B0ECD6F9A0ECC6FCA0EA5
:1012A000CB6FCA6B0A0EC86FC551D8B4C62BD88293
:1012B000010EEA6EC10EE96EC4C1D1F1C3C1D0F115
:1012C000C2C1CFF1C1C1CEF1CDC1D5F1CCC1D4F1F4
:1012D000CBC1D3F1CAC1D2F100014FDF015000529E
:1012E00013E10101C529C85DD8A402D000010CD0CA
:1012F000C6510DE00F0BC85D01E040E2C6BF3ED015
:10130000C6BD05D0200E34D0200E0101C617C6ABD5
:101310000ED0C69BC551D8A4C6070050C66F2D0E6F
:10132000CE6F0001E5DE0101C651006EC66BC551EE
:10133000C85D0CE10050C66F2E0ECE6F0001D8DEE6
:101340000101C651006E200EC617000E300EC6AB4E
:101350000FD0C69BC551D8A4C6070050C66F2D0E2E
:10136000CE6F0001C5DE0101C651006EC66B300EA6
:10137000002600C0CEF10001BBDE0101D892CDC134
:10138000D1F1CCC1D0F1CBC1CFF1CAC1CEF1D56B77
:10139000D46BD36B0A0ED26F0001EFDE03C0CDF128
:1013A00002C0CCF101C0CBF100C0CAF10101C82FCD
:1013B0007ED700011200BEC1C2F1BDC1C1F12C0E29
:1013C0000101C36F00017FEC04F0010E0101012453
:1013D0000001E36F000E010102200001E46FE4C090
:1013E000C2F1E3C0C1F12C0E0101C36F00017FEC1B
:1013F00004F0010E010101240001E36F000E010160
:1014000002200001E46FE3C0E9FFE4C0EAFFEF500F
:10141000410802E1A38706D0A39794928B92000E15
:10142000016E02D2E4C0C2F1E3C0C1F12C0E010191
:10143000C36F00017FEC04F0010E010101240001E3
:10144000E36F000E010102200001E46FE4C0C4F16B
:10145000E3C0C3F10101C66BC56B0001F3DC03C03F
:10146000EDF002C0ECF001C0EBF000C0EAF0E4C027
:10147000C2F1E3C0C1F12C0E0101C36F00017FEC8A
:1014800004F0010E010101240001E36F000E0101CF
:1014900002200001E46FE3C0E9FFE4C0EAFFEF507F
:1014A0004E0803E14E0EE96F09D0E3C0E9FFE4C046
:1014B000EAFFEF50530802E1530EE96FE4C0C2F1B6
:1014C000E3C0C1F12C0E0101C36F00017FEC04F0F9
:1014D000010E010101240001E36F000E0101022051
:1014E0000001E46FE4C0C4F1E3C0C3F10101C66BC5
:1014F000C56B0001A7DC03C0E8F002C0E7F001C043
:10150000E6F000C0E5F0E4C0C2F1E3C0C1F12C0E8A
:101510000101C36F00017FEC04F0010E0101012401
:101520000001E36F000E010102200001E46FE3C03F
:10153000E9FFE4C0EAFFEF50570803E1570EEE6FF2
:1015400009D0E3C0E9FFE4C0EAFFEF50450802E13B
:10155000450EEE6FEDC0D9F1ECC0D8F1EBC0D7F17C
:10156000EAC0D6F10101DD6BDC6B480EDB6F850E46
:10157000DA6F000137EC05F003C0CEF102C0CDF107
:1015800001C0CCF100C0CBF184DD01C0C1F101018B
:10159000C76BC1C1C6F1C7C1CEF1C1C1CDF1D06B1E
:1015A000640ECF6F000193DD02C0D7F101C0D6F108
:1015B00000011CEC05F0D882EDC0D9F1ECC0D8F1E7
:1015C000EBC0D7F1EAC0D6F103C0DDF102C0DCF117
:1015D00001C0DBF100C0DAF1E6EC05F003C0C5F1B3
:1015E00002C0C4F101C0C3F100C0C2F1C5C1D9F14C
:1015F000C4C1D8F1C3C1D7F1C2C1D6F10101DD6BBD
:10160000DC6B700EDB6F840EDA6F000137EC05F0D7
:1016100003C0C9F102C0C8F101C0C7F100C0C6F1E2
:101620000101D76BC1C1D6F100011CEC05F0D892C5
:10163000C9C1D9F1C8C1D8F1C7C1D7F1C6C1D6F166
:1016400003C0DDF102C0DCF101C0DBF100C0DAF162
:10165000E6EC05F003C0EDF002C0ECF001C0EBF0E9
:1016600000C0EAF0E951530803E0E951570803E1EB
:10167000EB51800AEB6FE8C0D9F1E7C0D8F1E6C0C2
:10168000D7F1E5C0D6F10101DD6BDC6B480EDB6FF5
:10169000850EDA6F000137EC05F003C0CEF102C011
:1016A000CDF101C0CCF100C0CBF1F3DC01C0C1F140
:1016B0000101C76BC1C1C6F1C7C1CEF1C1C1CDF136
:1016C000D06B640ECF6F000102DD02C0D7F101C004
:1016D000D6F100011CEC05F0D882E8C0D9F1E7C0D2
:1016E000D8F1E6C0D7F1E5C0D6F103C0DDF102C004
:1016F000DCF101C0DBF100C0DAF1E6EC05F003C07B
:10170000C5F102C0C4F101C0C3F100C0C2F1C5C13E
:10171000D9F1C4C1D8F1C3C1D7F1C2C1D6F1010119
:10172000DD6BDC6B700EDB6F840EDA6F000137EC63
:1017300005F003C0C9F102C0C8F101C0C7F100C083
:10174000C6F10101D76BC1C1D6F100011CEC05F057
:10175000D892C9C1D9F1C8C1D8F1C7C1D7F1C6C1A2
:10176000D6F103C0DDF102C0DCF101C0DBF100C045
:10177000DAF1E6EC05F003C0E8F002C0E7F001C0E2
:10178000E6F000C0E5F0EE51530803E0EE515708D3
:1017900003E1E651800AE66FE8C025F0E7C024F0D7
:1017A000E6C023F0E5C022F0EDC021F0ECC020F04F
:1017B000EBC01FF0EAC01EF0C0C1F0F0BFC1EFF0F7
:1017C000FC0EF66E020EF76E040E0101C16F0001F1
:1017D0009FDC050EE96EEDC0C4F1ECC0C3F1EBC0B7
:1017E000C2F1EAC0C1F1040E0101C56F00010FDDB5
:1017F000050EF66E030EF76E050E0101C16F0001B6
:1018000087DC050EE96EE8C0C4F1E7C0C3F1E6C0AD
:10181000C2F1E5C0C1F1040E0101C56F0001F7DCA2
:1018200094928B82010E016E25EF0CF0BAC1BEF1CD
:10183000B9C1BDF148EF04F0BAC1BEF1B9C1BDF103
:10184000BCC1C0F1BBC1BFF1B6D501502AEF0EF04B
:10185000BEC1C4F1BDC1C3F10101C66BC56B0001BE
:1018600022EC07F003C0C2F102C0C1F101C0C0F117
:1018700000C0BFF1C2C1D1F1C1C1D0F1C0C1CFF12F
:10188000BFC1CEF159DC67EF0CF00101C06B3F0E18
:10189000BF6FC26BAF0EC16F0001F6EC01F002C06A
:1018A000BAF101C0B9F10101B95306E1BA5304E13B
:1018B000000E016E026E10D00E0EB925BB6F000E29
:1018C000BA21BC6FBE6FBBC1BDF10001C1D701C061
:1018D00002F000C001F00101000112000900F6CF82
:1018E000BCF1F7CFBDF1F550A4A8FED7736EBCC113
:1018F000F6FFBDC1F7FF0101BB2F01D002D00001EF
:10190000EDD700017EEF0EF0EACFC3F1E9CFC2F1CF
:101910000101BC39F009BE6FBE27E20FBF6F320F65
:10192000C16FBC510F0BBF27BF27C127E90FC06F85
:10193000C027C027BB390F0BC027C127C037C1370D
:10194000C11FC137BB510F0BC127BE37070EBD6F7B
:101950000A0EC007C127FDE3BF07C027FDE3BE078E
:10196000BF27FDE3BD07BE27FDE3010EEA6EBD0EF6
:10197000E96E070EC215C29DE926C10EE95CD8B416
:10198000C28DEF50006E08E1C2BD06D0C2B90CD0C6
:10199000C2B702D0200E03D0C287C299300E0026F3
:1019A0000050A4A8FED7736EEE50C2ADE6D700017A
:1019B00085EF0EF0F86AD09E078E700ED36E9B9C5A
:1019C0009B9E1C6AB886A00EAF6E010EB06EA60E6E
:1019D000AC6E900EAB6E7086A00E756E010E766EBC
:1019E000A60E726E900E716E1D6A929E898E3E6A70
:1019F000A391A46BA393DA6BA395E46BE36BA3971A
:101A0000F06BEF6BC150F00BC16E000E0F01386F21
:101A10003C6F396F3A6F3B6F0101886B776A786A68
:101A2000796A27D002001600000900A54F4B004537
:101A300052524F52002B00AF2B4854545041435444
:101A4000494F4E3A302C006770736D617374657244
:101A50002E6575352E6F72672F706F73742E7068D8
:101A60007000000700DB244750524D43000A40E558
:101A70000000000EF86E1A0EF76E240EF66E0900C6
:101A8000F550006E000A13E00900F550016EE8BE43
:101A900005D00F0BEA6E0900F5CFE9FF01BC090084
:101AA00001AC0900F5CFEEFF004EE9D7F9D7F86A8F
:101AB00094948B9494908B9094928B9295849D8A1D
:101AC000A38AC00EF212BA6B3F0EB96F640EBB6FE1
:101AD000000196EC01F0FC0EF66E010EF76EA0EC24
:101AE00001F05CEF02F0AEEC02F0200EF66E020E9A
:101AF000F76EA0EC01F0180E0101B96FFA0EBD6F80
:101B00000001C2EC01F00101B92FF8D70001B9EFD3
:101B100002F03DEC02F0015209E094948B842E0E09
:101B2000F66E020EF76EA0EC01F008D094948B9440
:101B3000380EF66E020EF76EA0EC01F006EC03F024
:101B40007CEF03F04E0EF16F550EF26F4C0EF36FFB
:101B5000F46FF56B6C0E0101556F610E566F740ECC
:101B6000576F3D0E586F310E596F320E5A6F330E4C
:101B70005B6F260E5C6F6C0E5D6F6E0E5E6F670E98
:101B80005F6F3D0E606F340E616F350E626F360E03
:101B9000636F646B0001C7EC02F03E0EF66E020E3E
:101BA000F76E130E0101B96F0001CCEF03F0EA6A82
:101BB000BE0EE96EE2EC03F03F0E9EA8FED7AD6EBE
:101BC000010EEA6E550EE96EE2EC03F0220E9EA8BD
:101BD000FED7AD6E0D0E9EA8FED7AD6E010EEA6E5D
:101BE000550EE96EF5EF03F00A0EA4A8FED7736E4A
:101BF0000D0EA4A8FED7736E0101BA6BA50EB96FC6
:101C00000B0EBC6FB80EBB6F0001CAEC02F00152A4
:101C100006E15A0EF66E020EF76EA0EC01F0C7EC6C
:101C200002F00101BA6B3F0EB96F640EBB6F000189
:101C300096EC01F0660EF66E020EF76EB1EC01F056
:101C40000101BA6BF10EB96F010EBC6F550EBB6F7F
:101C50000001ECD50101BA6BAF0EB96F1B0EBC6F62
:101C6000580EBB6F0001CAEC02F0015257E00DDEC6
:101C700001C000F00250036E03E1C80E005C0DE0ED
:101C8000020E035C03E1590E005C0EE0020E035CE1
:101C900003E15C0E005C11E023D0780EF66E020EBC
:101CA000F76EA0EC01F039D0820EF66E020EF76EE0
:101CB000A0EC01F006EC03F030D08C0EF66E020EB4
:101CC000F76EA0EC01F0080E0101B96FFA0EBD6FBE
:101CD0000001C2EC01F00101B92FF8D700011DD0BD
:101CE000D4DD02C0BAF101C0B9F19A0EF66E020E4F
:101CF000F76E0C0E0101BB6F0001F0D5100EE96EFE
:101D0000BAC1BCF1B9C1BBF1FFD50A0EA4A8FED778
:101D1000736E0D0EA4A8FED7736E06D0AC0EF66ED1
:101D2000020EF76EA0EC01F094908B70020E010190
:101D3000B96FFA0EBD6F0001C2EC01F00101B92FBD
:061D4000F8D728D70300CC
:020000040030CA
:0E00000000F8181E00BF81000FC00FE00F4077
:00000001FF
;PIC18F45K22
;CRC=6C36  CREATED="18-Nov-13 16:15"
