:0400000045EF08F0D0
:08000800046ED8CF05F0E0CF33
:1000100006F00001E9CF0CF0EACF07F0E1CF08F0DD
:10002000E2CF09F0D9CF0AF0DACF0BF0F3CF12F01C
:10003000F4CF13F0FACF14F000C00EF001C00FF0AF
:1000400002C010F003C011F09DAA2AEF00F09EBA82
:100050005DEF00F0A3AA30EF00F0A4BA8EEF00F03D
:100060000EC000F00FC001F010C002F011C003F08C
:100070000CC0E9FF07C0EAFF078E08C0E1FF09C016
:10008000E2FF0AC0D9FF0BC0DAFF12C0F3FF13C0B2
:10009000F4FF14C0FAFF045006C0E0FF05C0D8FF0B
:1000A00010009EAAFED7ABCF1CF0AECF01F01CA271
:1000B00002D0AB98AB885EEF00F0F3D701C0B1F08F
:1000C000036A4B504C0FE96E000E0320EA6EB1C07C
:1000D000EFFFB1510A0806E1B0A303D0B081B0939D
:1000E00001D0B0834B504B2A640801E14B6A9E9AC1
:1000F00030EF00F041540D00415445300D004154A3
:1001000045300D00A4AAFED771CF1CF074CF01F0CA
:100110001CA202D0719871888FEF00F0F3D701C054
:10012000BBF0A49A30EF00F0340A0D0041542B4884
:10013000545450494E49540D000046616C73653467
:100140000A0D0000350A0D0041542B4854545050FC
:100150004152413D22434944222C310D0000466169
:100160006C7365350A0D0000310A0D0041542B53A4
:10017000415042523D332C312C22434F4E54595062
:1001800045222C2247505253220D000046616C73C9
:1001900065310A0D0000320A0D0041542B534150C5
:1001A00042523D332C312C2241504E222C225741B9
:1001B000502E5741524944220D0046616C736532FE
:1001C0000A0D0000330A0D0041542B534150425296
:1001D0003D312C310D0046616C7365330A0D000012
:1001E0005F5F5F5F5F5F5F5F5F5F5F5F5F5F5F5F1F
:1001F0005F0A0A0D5374617274696E67205570212D
:100200000A0D0000506F776572696E672055700A9D
:100210000D00436F6D73204F4B0A0D004552520A7B
:100220000D0041542B48545450504152413D2255E9
:10023000524C222C22686178616E372E64796E648C
:100240006E732E696E666F3A383038302F702F67B4
:1002500065742E7068703F666E3D2575220D000036
:1002600046616C73653536360A0D000041542B48E3
:10027000545450414354494F4E3D300D00005355A6
:1002800043434553530D0A004641494C21210A0D71
:100290000000537461636B4275737921210A0D006C
:1002A0004572726F7220436F64653A20254C750A5F
:1002B0000D0054696D654F757421210A0D0041547C
:1002C0002B485454505445524D0D000041542B536B
:1002D000415042523D302C310D005475726E696EA2
:1002E00067204F66660A0D0024504D544B3331345D
:1002F0002C302C312C302C302C302C302C302C301D
:100300002C302C302C302C302C302C302C302C300D
:100310002C302C302C302A32390D0A004750533AF9
:10032000254C752C25662C25632C25662C25632CE5
:1003300025662C256600016603D0026602D007D030
:10034000022A00C0EEFF012EFCD7022EFAD7B2EF30
:1003500001F0F5C0EAFFF4C0E9FF006A026AF6C0E6
:1003600001F0E9D712000900F5520DE0F6CFF4F0E4
:10037000F7CFF5F0F550A4A8FED7736EF4C0F6FFE2
:10038000F5C0F7FFF0D712000900F5520DE0F6CFE7
:10039000F4F0F7CFF5F0F5509EA8FED7AD6EF4C09F
:1003A000F6FFF5C0F7FFF0D71200EA6AF80EE96E23
:1003B000EF500EE0050E016E006A002EFED7012EF2
:1003C000FBD72E0E006E002EFED700D0EF2EF2D7F8
:1003D0001200B0B10CD0F45302E1F55308E0F4512F
:1003E000D8B4F507F407010EF86FDFDFF2D7F45346
:1003F00004E1F55302E1000E01D0010E016E55EF4C
:1004000002F0F9C003F0F8C0E9FFF9C0EAFFEF52CB
:100410003CE0F9C0FDF0F8C0FCF0FBC0FFF0FAC012
:10042000FEF0FFC003F0FEC0E9FFFFC0EAFFEF529D
:100430001BE0FCC0E9FFFDC0EAFFEFCF00F1FFC009
:1004400003F0FEC0E9FFFFC0EAFFEF500101005DCD
:10045000D8B402D0000108D00001FC2BD8B4FD2B89
:10046000FE2BD8B4FF2BDDD7FFC003F0FEC0E9FFA1
:1004700003C0EAFFEF5205E1F8C001F0F9C002F055
:1004800007D0F82BD8B4F92BBCD7000E016E026E42
:1004900012004B6AB091F40EF66E000EF76E74DF28
:1004A000030EF56FE80EF46F94D701520AE0F96B72
:1004B0004C0EF86FFB6BB20EFA6FA3DF015003D046
:1004C00002D0000E016E1200E4DF0152D8A40AD05F
:1004D00094908B90060EF46FFA0EF86F66DFF42F8F
:1004E000FBD79480CAEF08F0FE0EF66E000EF76E92
:1004F0004BDF640EF86F59DFB0914B6ADAEF08F00A
:100500004B6AB0911200F65302E1F75329E0B0A113
:100510001FD0F96B4C0EF86FF5C0FBF0F4C0FAF089
:1005200070DF0150021007E0C80EF86F3EDF010EC9
:10053000016E18D00DD0F96B4C0EF86FFB6BB50E39
:10054000FA6F5FDF0150021003E0000E016E0AD067
:10055000F651D8B4F707F607010EF86F26DFD3D7A8
:10056000000E016E1200680EF66E010EF76EFBDED5
:10057000C7DF6C0EF66E010EF76E06DFF56BB20E7E
:10058000F46F0B0EF76FB80EF66FBDDF015205E189
:100590008C0EF66E010EF76EE6DE020EF46FFA0EAA
:1005A000F86F03DFF42FFBD7960EF66E010EF76E91
:1005B000DADEA6DF9A0EF66E010EF76EE5DEF56B5B
:1005C000B20EF46F0B0EF76FB80EF66F9CDF015290
:1005D00005E1BA0EF66E010EF76EC5DE020EF46F7F
:1005E000FA0EF86FE2DEF42FFBD7C40EF66E010EA2
:1005F000F76EB9DE85DFC80EF66E010EF76EC4DE4B
:10060000F56BB20EF46F0B0EF76FB80EF66F7BDF63
:10061000015205E1D60EF66E010EF76EA4DE040E51
:10062000F46FFA0EF86FC1DEF42FFBD71200280E1C
:10063000F66E010EF76E97DE63DF2C0EF66E010E7E
:10064000F76EA2DEF56BB20EF46F0B0EF76FB80EFD
:10065000F66F59DF015205E13A0EF66E010EF76EA4
:1006600082DE020EF46FFA0EF86F9FDEF42FFBD7D6
:10067000440EF66E010EF76E76DE42DF480EF66E21
:10068000010EF76E81DEF56BB20EF46F0B0EF76F95
:10069000B80EF66F38DF015205E15E0EF66E010E00
:1006A000F76E61DE020EF46FFA0EF86F7EDEF42F45
:1006B000FBD7EFEF08F00900F6CFF5F0F7CFF6F033
:1006C000F5509EA8FED7AD6EF5C0F6FFF6C0F7FF59
:1006D000F42FF1D7FEEF08F0F751016AF65D03E25F
:1006E000F6C000F00CD0006A080EF86FF63700363E
:1006F000F751005CD8B0006E0136F82FF7D7120022
:100700000150F4C0F6F0640EF76FE6DF00C0F4F0BD
:100710000150300E07E1F5A30DD0F5B70BD0F5B9B8
:10072000200E03D0F597F599F581012601509EA87A
:10073000FED7AD6EF4C0F6F00A0EF76FCDDF00C045
:10074000F4F00150300E06E1F5B709D0F5A107D05D
:10075000F5B9200E012601509EA8FED7AD6E300ED1
:10076000F427F4519EA8FED7AD6E04EF09F0010105
:100770000F51D8B471D0006E1351D8B46DD000268B
:1007800004E3810E002668E204D07F0E005E64E37D
:1007900063E010C117F11451171B108F148F125101
:1007A0001603F4CF19F111511503F4CF03F0F3CF71
:1007B00018F11603F3501927F4501823000E0322E2
:1007C00012511503F3501927F4501823000E026A32
:1007D0000322022210511603F3501827F45003226B
:1007E000000E022210511503F3500326F45002228A
:1007F000000E016A012212511403F3501827F4501D
:100800000322000E0222012211511403F350032689
:10081000F4500222000E012210511403F35002265C
:10082000F4500122002A01BE05D0183703360236E3
:1008300001360006000E18AF0AD0032A0222012258
:10084000015005E1025003E1035001E1002A17BF06
:10085000018E17AF019E04D0006A016A026A036A22
:10086000000112008E0E006E14C101F013C102F0DF
:10087000036A015209E102C001F0026A080E005E3B
:10088000015202E1006A08D0D89001BE04D00236BD
:1008900001360006F9D7019E120001011351D8B4A8
:1008A000A5D01F6F1751D8B4A1D01F5F05E37F0EED
:1008B0001F27D8B09BD006D0810E1F5FD8A096D03E
:1008C000D8B494D01FC100F0016A026A036A1E6B9B
:1008D00014C11DF11D8F15C11CF116C11BF1190E9C
:1008E0001F6F1A511B5F0DE2010E1C5F0AE21D5FB4
:1008F00008E21E5F06E21E2B1D2B1C2B1A511B2724
:1009000028D019511C5F12E2010E1D5F0FE21E5F1D
:100910000DE21E2B1D2B19511C271A511B2719E301
:100920001C2B17E11D2B15E11E2B13D0185180092C
:100930001D5F0EE2010E1E5F0BE21E2B1851800997
:100940001D2719511C27E9E31D2BE7E11E2BE5D7D5
:1009500003801F2F01D00BD0D8901B371C371D37B9
:100960001E37D8900336023601362037BAD720A179
:1009700006D0D890013202320332203302D0000672
:1009800035E020BF1ED0D8901B371C371D371E37CF
:100990001A511B5F07E2010E1C5F04E21D5F02E2B9
:1009A0001E5F1AE319511C5F05E2010E1D5F02E292
:1009B0001E5F12E3185180091D5F03E2010E1E5FE6
:1009C0000BE3032A09E1022A07E1012A05E1002AD3
:1009D0000DE001320232033214C11FF118511F1B06
:1009E0001FAF02D0018E06D0019E04D0006A016ABA
:1009F000026A036A0001BFEF06F0800ED8A202D09F
:100A00000101181B01011D6B1E6B14C11CF1185153
:100A10001C1B1351D8B4DFD01B6F006E1751D8B414
:100A2000E3D01B5FD8B483D03EE318C121F1218FFE
:100A300019C120F11AC11FF11E6BD8902133203348
:100A40001F331E331B2FF8D71CAF03D01D81E0D0FE
:100A50001D911B911D89010EEA6E160EE96EEBD0F9
:100A60001D991CBF0AD01BA113D0213320331F3383
:100A70001E33002AD8B4C7D00BD021BF0CD0D890D9
:100A80001E371F37203721370006D8B4BCD0F5D722
:100A90001D8D6DD01D9D14C11CF114AF02D0218F8E
:100AA000ABD0219FA9D017C11BF117C100F0135182
:100AB0001B5F14C121F1218F15C120F116C11FF157
:100AC0001E6BD890213320331F331E331B2FF8D7D2
:100AD0001CAF03D01D839CD01D931B911D8B010E59
:100AE000EA6E1A0EE96EA7D01D9B1CBF0AD01BA18F
:100AF00013D0213320331F331E33002AD8B483D0C0
:100B00000BD021BF0CD0D8901E371F37203721378C
:100B10000006D8B478D0F5D71D8F29D01D9F18C1F5
:100B20001CF118AF02D0218F67D0219F65D018C16A
:100B300021F1218F19C120F11AC11FF11CAF04D07E
:100B4000219F1D8565D01D951E6B1B91010EEA6EC0
:100B5000160EE96E70D01CBF1CD014C11CF11BA175
:100B600006D0213320331F331E33002A4CE01EAF42
:100B70000BD01F2B09E1202B07E1212B05E12133AD
:100B800020331F33002A3FE01DBD84D71DBFC6D7C9
:100B90001CD0800E211B21AF04D03AD018C11CF10B
:100BA0000AD014C11CF1215306E1205304E11F5364
:100BB00002E1006A21D021BF08D0D8901E371F372C
:100BC00020372137002EF7D71ED01CAF02D0218F3F
:100BD00013D0219F11D017C100F018C121F119C104
:100BE00020F11AC11FF108D013C100F014C121F186
:100BF00015C120F116C11FF121C101F020C102F081
:100C00001FC103F034D0006A016A026A036A2FD060
:100C10001E6B1F1F201F211F1E1F1E2B05E11F2BD8
:100C200003E1202B01E1212B1DB112D71DB354D7B5
:100C30001DB589D7B3D7EF501F2705E3202B03E15C
:100C4000212BD8B41B81ED52EF50202703E3212B39
:100C5000D8B41B81ED52EF50EFBE01D0800A21279E
:100C6000D8B01B811DB9FCD61DBB3ED774D700017F
:100C700012000101056B046B036B7F0E026F096BA1
:100C8000086B076B066B0A810A930A950C6B0001CF
:100C9000FE51FF1105E1006A016A026A036A17D179
:100CA00001010C510C2B036A0001FE25E96EFF5176
:100CB0000320EA6EEFCF0BF101010B53D8B4C7D07C
:100CC0000AA10FD00B5120080CE00A910B512B0800
:100CD00003E10A93ADD005D00B512D0802E10A8340
:100CE000A7D00AB107D00B512E0804E10AB502D0F3
:100CF0000A859ED00AB199D00B512F08D8B095D053
:100D00000B513908D8A091D0300E0B5F0AA553D0F3
:100D100005C112F104C111F103C110F102C10FF1BB
:100D2000166B156B200E146F820E136F00011FDD02
:100D300003C005F102C004F101C003F100C002F1DB
:100D40000101146B0BC113F100018CDD03C010F124
:100D500002C00FF101C00EF100C00DF103C016F189
:100D600002C015F101C014F100C013F105C11AF160
:100D700004C119F103C118F102C117F18ED5D8923F
:100D800009C116F108C115F107C114F106C113F12B
:100D900003C01AF102C019F101C018F100C017F127
:100DA0002CDE03C009F102C008F101C007F100C048
:100DB00006F139D00101126B116B200E106F820EFB
:100DC0000F6F09C116F108C115F107C114F106C171
:100DD00013F10001CCDC03C010F102C00FF101C01F
:100DE0000EF100C00DF10101146B0BC113F10001F4
:100DF00039DDD89210C116F10FC115F10EC114F1F1
:100E00000DC113F103C01AF102C019F101C018F1AC
:100E100000C017F1F2DD03C009F102C008F101C002
:100E200007F100C006F105D001010AB101D00FD0D1
:100E3000000101010C510C2B036A0001FE25E96E33
:100E4000FF510320EA6EEFCF0BF136D701010AA361
:100E500019D0126B116B800E106F7F0E0F6F09C1CE
:100E600016F108C115F107C114F106C113F1000113
:100E70007EDC03C009F102C008F101C007F100C027
:100E800006F101010051011119E00C530EE00C07AD
:100E900000C1E9FF01C1EAFF0C510001FE25EF6E20
:100EA000000EFF21EC6E0BD0010100C1E9FF01C172
:100EB000EAFFFFC0ECFFED52FEC0EFFF000106C1EC
:100EC00000F007C101F008C102F009C103F096EF7C
:100ED00007F0FE51B608FE6F036AFFC002F1FF8FF4
:100EE000D890FF3301010033013303320232013263
:100EF00000320001FE2FF4D7010102AF0BD0001E1B
:100F0000011E021E031E002AD8B4012AD8B4022AE8
:100F1000D8B4032A0001A7EF07F0F9C0FFF0F8C02A
:100F2000FEF00101016B006B0001A3D603C0FDF0D0
:100F300002C0FCF001C0FBF000C0FAF0FDC001F1FE
:100F4000FCC000F1FBC0FFF0FAC0FEF0C2D7C7EF53
:100F500007F0F96B4C0EF86FFB6BBC0EFA6F01ECEF
:100F600002F002C0F5F001C0F4F0F45306E1F553CD
:100F700004E1000E016E026E0ED00E0EF425F66F27
:100F8000000EF521F76FF96FF6C0F8F0C6D701C073
:100F900002F000C001F012000900F6CFF7F0F7CF21
:100FA000F8F0F550A4A8FED7736EF7C0F6FFF8C0AE
:100FB000F7FFF62FF1D778EF09F0EACFFEF0E9CF8F
:100FC000FDF0F739F009F96FF927E20FFA6F320FE8
:100FD000FC6FF7510F0BFA27FA27FC27E90FFB6F7D
:100FE000FB27FB27F6390F0BFB27FC27FB37FC37CA
:100FF000FC1FFC37F6510F0BFC27F937070EF86F73
:101000000A0EFB07FC27FDE3FA07FB27FDE3F907C0
:10101000FA27FDE3F807F927FDE3EA6AF80EE96E1F
:10102000070EFD15FD9DE926FC0EE95CD8B4FD8D8B
:10103000EF50006E08E1FDBD06D0FDB90CD0FDB744
:1010400002D0200E03D0FD87FD99300E00260050FF
:10105000A4A8FED7736EEE50FDADE6D77FEF09F082
:1010600094908B90060EF46FFA0EF86FD5EC01F0A9
:10107000F42FFAD79480060EF46FFA0EF86FD5ECC1
:1010800001F0F42FFAD7C5EF09F0F86AD09E078E69
:10109000700ED36E9B9C9B9E1C6AB886A00EAF6E92
:1010A000010EB06EA60EAC6E900EAB6E7086A00EEA
:1010B000756E010E766EA60E726E900E716E1D6AC2
:1010C000929E898E4B6AB091B16BB093CC6BB09508
:1010D000D66BD56BF26BF16BC150F00BC16E000E8D
:1010E0000F01386F3C6F396F3A6F3B6F0101886BAE
:1010F000776A786A796A1AD002001600000900B28D
:101100004F4B004552524F52001000BC2B485454D4
:1011100050414354494F4E3A302C00000700CD2433
:101120004750524D43001A40D7000000000EF86EA1
:10113000100EF76EF80EF66E0900F550006E000AFC
:1011400013E00900F550016EE8BE05D00F0BEA6E02
:101150000900F5CFE9FF01BC090001AC0900F5CF9A
:10116000EEFF004EE9D7F9D7F86A94809D8AA38AEA
:10117000C00EF2120001F56B4C0EF46F640EF66FA8
:10118000A9EC01F0E00EF66E010EF76EB3EC01F083
:1011900064EF02F0040EF66E020EF76EB3EC01F08F
:1011A000180EF46FFA0EF86FD5EC01F0F42FFAD7A1
:1011B00074EF02F049EC02F0015207E0120EF66EF5
:1011C000020EF76EB3EC01F006D01C0EF66E020EA6
:1011D000F76EB3EC01F0B3EC02F017EF03F0F36B32
:1011E000F351F908D8A0A0D080EC02F0220EF66EE0
:1011F000020EF76E380EF46F5BEF03F0F3C0F4F0FD
:101200001B0EF56F80EF03F0220E9EA8FED7AD6E89
:101210000D0E9EA8FED7AD6EF56BB20EF46F0B0EE1
:10122000F76FB80EF66F83EC02F0015206E1600E24
:10123000F66E020EF76EB3EC01F080EC02F0F56B87
:101240004C0EF46F640EF66FA9EC01F06C0EF66EA6
:10125000020EF76EC4EC01F0F56BBC0EF46F1B0EC2
:10126000F76F580EF66F83EC02F0015251E071DE19
:1012700001C000F00250036E03E1C80E005C0DE0F7
:10128000020E035C03E1590E005C0EE0020E035CEB
:1012900003E15C0E005C11E01FD07E0EF66E020EC4
:1012A000F76EB3EC01F033D0880EF66E020EF76ED7
:1012B000B3EC01F0B3EC02F02AD0920EF66E020EFF
:1012C000F76EB3EC01F0080EF46FFA0EF86FD5EC80
:1012D00001F0F42FFAD71BD03CDE02C0F5F001C0BC
:1012E000F4F0A00EF66E020EF76E0C0EF66F54D6EA
:1012F000100EE96EF5C0F7F0F4C0F6F05ED60A0EF7
:10130000A4A8FED7736E0D0EA4A8FED7736E06D0E8
:10131000B20EF66E020EF76EB3EC01F0640EF86FCB
:10132000D5EC01F0F32B5CD780EC02F0BE0EF66E2C
:10133000020EF76EC4EC01F0F56BB20EF46F0B0EFB
:10134000F76FB80EF66F83EC02F080EC02F0CC0E73
:10135000F66E020EF76EC4EC01F0F56BB20EF46F90
:101360000B0EF76FB80EF66F83EC02F0140EF46FED
:10137000FA0EF86FD5EC01F0F42FFAD7DA0EF66E0C
:10138000020EF76EB3EC01F06BD6140EF46FFA0E8A
:10139000F86FD5EC01F0F42FFAD7FFD720D7030070
:020000040030CA
:0E00000000F8181E00BF81000FC00FE00F4077
:00000001FF
;PIC18F45K22
;CRC=6353  CREATED="03-Nov-13 14:49"
