:04000000DBEF08F03A
:08000800046ED8CF05F0E0CF33
:1000100006F00001E9CF0CF0EACF07F0E1CF08F0DD
:10002000E2CF09F0D9CF0AF0DACF0BF0F3CF12F01C
:10003000F4CF13F0FACF14F000C00EF001C00FF0AF
:1000400002C010F003C011F09DAA2AEF00F09EBA82
:100050005DEF00F0A3AA30EF00F0A4BA8EEF00F03D
:100060000EC000F00FC001F010C002F011C003F08C
:100070000CC0E9FF07C0EAFF078E08C0E1FF09C016
:10008000E2FF0AC0D9FF0BC0DAFF12C0F3FF13C0B2
:10009000F4FF14C0FAFF045006C0E0FF05C0D8FF0B
:1000A00010009EAAFED7ABCF1CF0AECF01F01CA271
:1000B00002D0AB98AB885EEF00F0F3D701C0BDF083
:1000C000036A5750580FE96E000E0320EA6EBDC058
:1000D000EFFFBD510A0806E1BCA303D0BC81BC936D
:1000E00001D0BC835750572A640801E1576A9E9A91
:1000F00030EF00F041540D00415445300D004154A3
:1001000045300D00A4AAFED771CF1CF074CF01F0CA
:100110001CA202D0719871888FEF00F0F3D701C054
:10012000C7F0A49A30EF00F0340A0D0041542B4878
:10013000545450494E49540D000046616C73653467
:100140000A0D0000350A0D0041542B4854545050FC
:100150004152413D22434944222C310D0000466169
:100160006C7365350A0D0000310A0D0041542B53A4
:10017000415042523D332C312C22434F4E54595062
:1001800045222C2247505253220D000046616C73C9
:1001900065310A0D0000320A0D0041542B534150C5
:1001A00042523D332C312C2241504E222C225741B9
:1001B000502E5741524944220D0046616C736532FE
:1001C0000A0D0000330A0D0041542B534150425296
:1001D0003D312C310D0046616C7365330A0D000012
:1001E00041542B485454505445524D0D0000415435
:1001F0002B53415042523D302C310D005F5F5F5F09
:100200005F5F5F5F5F5F5F5F5F5F5F5F5F0A0A0DFA
:100210005374617274696E67205570210A0D000075
:10022000506F776572696E672055700A0D00436FD5
:100230006D73204F4B0A0D004552520A0D00415478
:100240002B48545450504152413D2255524C222C7F
:1002500022686178616E372E64796E646E732E69E0
:100260006E666F3A383038302F702F6765742E7095
:1002700068703F666E3D2575220D000046616C7307
:10028000653536360A0D000041542B485454504110
:100290004354494F4E3D300D0000535543434553A1
:1002A000530D0A004641494C21210A0D00005374A8
:1002B00061636B4275737921210A0D004572726F7B
:1002C0007220436F64653A20254C750A0D0054690D
:1002D0006D654F757421210A0D005475726E696E3B
:1002E00067204F66660A0D0024504D544B3331345D
:1002F0002C302C312C302C302C302C302C302C301D
:100300002C302C302C302C302C302C302C302C300D
:100310002C302C302C302A32390D0A0024504D5408
:100320004B3232302C3230302A324300016603D057
:10033000026602D007D0022A00C0EEFF012EFCD7D1
:10034000022EFAD7ADEF01F002C1EAFF01C1E9FFC9
:10035000006A026A03C101F0E9D712000900F552F0
:100360000DE0F6CF01F1F7CF02F1F550A4A8FED7CA
:10037000736E01C1F6FF02C1F7FFF0D7120009004A
:10038000F5520DE0F6CF01F1F7CF02F1F5509EA83E
:10039000FED7AD6E01C1F6FF02C1F7FFF0D7120024
:1003A000010EEA6E050EE96EEF500EE0050E016ECD
:1003B000006A002EFED7012EFBD72E0E006E002EF7
:1003C000FED700D0EF2EF2D71200BCB111D0010140
:1003D000015305E10253D8A402D0000109D0015114
:1003E000D8B402070107010E056F0001D9DFEDD770
:1003F0000101015304E1025302E1000E01D0010E9C
:10040000016E000159EF02F006C103F0010105C1C0
:10041000E9FF06C1EAFFEF5239E006C10AF105C162
:1004200009F108C10CF107C10BF10CC103F00BC1BC
:10043000E9FF0CC1EAFFEF5216E009C1E9FF0AC16A
:10044000EAFFEFCF0DF10CC103F00BC1E9FF0CC1C6
:10045000EAFFEF500D5D07E1092BD8B40A2B0B2BF7
:10046000D8B40C2BE2D70CC103F00BC1E9FF03C0D9
:10047000EAFFEF5205E105C101F006C102F009D023
:10048000052BD8B4062B0001BFD70101000E016E69
:10049000026E00011200576ABC91F40EF66E000E57
:1004A000F76E6DDF030E0101026FE80E016F0001B0
:1004B0008CD701520CE00101066B580E056F086BDA
:1004C000BE0E076F0001A0DF015003D002D0000E66
:1004D000016E1200E0DF0152D8A40DD094908B90F1
:1004E000060E0101016FFA0E056F000159DF0101CF
:1004F000012FF9D79480000161EF09F0929E899E47
:10050000080E016E00D00000018E10D0019E010186
:1005100003330001D8B0898ED8A0899E018C06D003
:10052000019C012EF4D700D00000898E010E006ED0
:10053000E96AE92EFED7002EFBD70E0EE96EE92EF2
:10054000FED7000001BEE2D701BCEAD7B2EF02F04D
:100550000900F5520CE0F6CF01F1F7CF02F1F5CF2B
:1005600003F1CCD701C1F6FF02C1F7FFF1D71200AA
:10057000E80EF66E020EF76EEBDF1C0EF66E030E43
:10058000F76EE6DF63EF09F0FE0EF66E000EF76E13
:10059000F6DE640E0101056F000102DFBC91576AAF
:1005A00077EF09F0576ABC9112000101035302E191
:1005B000045333E00001BCA125D00101066B580EA5
:1005C000056F02C108F101C107F100011DDF0150F3
:1005D000021009E0C80E0101056F0001E1DE010E05
:1005E000016E1ED00FD00101066B580E056F086B0F
:1005F000C10E076F000108DF0150021003E0000E7A
:10060000016E0ED001010351D8B404070307010E97
:10061000056F0001C5DEC9D70101000E016E0001A2
:100620001200680EF66E010EF76E98DEBBDF6C0EE0
:10063000F66E010EF76EA3DE0101026BBE0E016FB6
:100640000B0E046FB80E036F0001AFDF015205E11E
:100650008C0EF66E010EF76E81DE020E0101016F47
:10066000FA0E056F00019CDE0101012FF9D7960EED
:10067000F66E010EF76E000171DE94DF9A0EF66ED3
:10068000010EF76E7CDE0101026BBE0E016F0B0ED8
:10069000046FB80E036F000188DF015205E1BA0E46
:1006A000F66E010EF76E5ADE020E0101016FFA0EB0
:1006B000056F000175DE0101012FF9D7C40EF66E3A
:1006C000010EF76E00014ADE6DDFC80EF66E010EF8
:1006D000F76E55DE0101026BBE0E016F0B0E046F4B
:1006E000B80E036F000161DF015205E1D60EF66E10
:1006F000010EF76E33DE040E0101016FFA0E056F75
:1007000000014EDE0101012FF9D700011200280E71
:10071000F66E010EF76E22DE45DF2C0EF66E010E30
:10072000F76E2DDE0101026BBE0E016F0B0E046F22
:10073000B80E036F000139DF015205E13A0EF66E83
:10074000010EF76E0BDE020E0101016FFA0E056F4E
:10075000000126DE0101012FF9D7440EF66E010ECD
:10076000F76E0001FBDD1EDF480EF66E010EF76E20
:1007700006DE0101026BBE0E016F0B0E046FB80E98
:10078000036F000112DF015205E15E0EF66E010EED
:10079000F76EE4DD020E0101016FFA0E056F000134
:1007A000FFDD0101012FF9D700018CEF09F00900ED
:1007B000F6CF02F1F7CF03F1F5509EA8FED7AD6E4C
:1007C00002C1F6FF03C1F7FF0101012F01D002D0E2
:1007D0000001EDD700019DEF09F001010451016A0C
:1007E000035D03E203C100F00CD0006A080E056F40
:1007F000033700360451005CD8B0006E0136052F77
:10080000F7D700011200015001C103F1640E01018C
:10081000046F0001E2DF00C001F10150300E08E179
:10082000010102A30ED002B70CD002B9200E04D0F1
:100830000101029702990281012601509EA8FED76C
:10084000AD6E01C103F10A0E046F0001C6DF00C0E6
:1008500001F10150300E08E1010102B70BD002A1F5
:1008600009D002B9200E0001012601509EA8FED732
:10087000AD6E0101300E012701519EA8FED7AD6E6D
:100880000001A5EF09F001011A51D8B471D0006E32
:100890001E51D8B46DD0002604E3810E002668E214
:1008A00004D07F0E005E64E363E01BC122F11F51A0
:1008B000221B1B8F1F8F1D512103F4CF24F11C51CC
:1008C0002003F4CF03F0F3CF23F12103F3502427C7
:1008D000F4502323000E03221D512003F35024273C
:1008E000F4502323000E026A032202221B5121032B
:1008F000F3502327F4500322000E02221B51200341
:10090000F3500326F4500222000E016A01221D5109
:100910001F03F3502327F4500322000E022201226A
:100920001C511F03F3500326F4500222000E012233
:100930001B511F03F3500226F4500122002A01BE6E
:1009400005D023370336023601360006000E23AFEA
:100950000AD0032A02220122015005E1025003E1DC
:10096000035001E1002A22BF018E22AF019E04D074
:10097000006A016A026A036A000112008E0E006EAC
:100980001FC101F01EC102F0036A015209E102C059
:1009900001F0026A080E005E015202E1006A08D00E
:1009A000D89001BE04D0023601360006F9D7019E68
:1009B000120001011E51D8B4A5D02A6F2251D8B41B
:1009C000A1D02A5F05E37F0E2A27D8B09BD006D09E
:1009D000810E2A5FD8A096D0D8B494D02AC100F056
:1009E000016A026A036A296B1FC128F1288F20C19E
:1009F00027F121C126F1190E2A6F2551265F0DE23C
:100A0000010E275F0AE2285F08E2295F06E2292B30
:100A1000282B272B2551262728D02451275F12E287
:100A2000010E285F0FE2295F0DE2292B282B2451AC
:100A300027272551262719E3272B17E1282B15E116
:100A4000292B13D023518009285F0EE2010E295F64
:100A50000BE2292B23518009282724512727E9E37A
:100A6000282BE7E1292BE5D703802A2F01D00BD0D3
:100A7000D8902637273728372937D89003360236BB
:100A800001362B37BAD72BA106D0D89001320232CB
:100A900003322B3302D0000635E02BBF1ED0D89096
:100AA00026372737283729372551265F07E2010ED9
:100AB000275F04E2285F02E2295F1AE32451275FDF
:100AC00005E2010E285F02E2295F12E3235180094B
:100AD000285F03E2010E295F0BE3032A09E1022AE2
:100AE00007E1012A05E1002A0DE00132023203325A
:100AF0001FC12AF123512A1B2AAF02D0018E06D032
:100B0000019E04D0006A016A026A036A000147EF8D
:100B100007F0800ED8A202D00101231B0101286B2F
:100B2000296B1FC127F12351271B1E51D8B4DFD0D9
:100B3000266F006E2251D8B4E3D0265FD8B483D09C
:100B40003EE323C12CF12C8F24C12BF125C12AF1C6
:100B5000296BD8902C332B332A332933262FF8D7FF
:100B600027AF03D02881E0D0289126912889010E53
:100B7000EA6E210EE96EEBD0289927BF0AD026A194
:100B800013D02C332B332A332933002AD8B4C7D0BF
:100B90000BD02CBF0CD0D89029372A372B372C37C5
:100BA0000006D8B4BCD0F5D7288D6DD0289D1FC1C4
:100BB00027F11FAF02D02C8FABD02C9FA9D022C120
:100BC00026F122C100F01E51265F1FC12CF12C8F8F
:100BD00020C12BF121C12AF1296BD8902C332B3362
:100BE0002A332933262FF8D727AF03D028839CD068
:100BF00028932691288B010EEA6E250EE96EA7D068
:100C0000289B27BF0AD026A113D02C332B332A339D
:100C10002933002AD8B483D00BD02CBF0CD0D89065
:100C200029372A372B372C370006D8B478D0F5D798
:100C3000288F29D0289F23C127F123AF02D02C8FE2
:100C400067D02C9F65D023C12CF12C8F24C12BF1B0
:100C500025C12AF127AF04D02C9F288565D028957F
:100C6000296B2691010EEA6E210EE96E70D027BF26
:100C70001CD01FC127F126A106D02C332B332A33D9
:100C80002933002A4CE029AF0BD02A2B09E12B2B6A
:100C900007E12C2B05E12C332B332A33002A3FE0CC
:100CA00028BD84D728BFC6D71CD0800E2C1B2CAFE4
:100CB00004D03AD023C127F10AD01FC127F12C5309
:100CC00006E12B5304E12A5302E1006A21D02CBF34
:100CD00008D0D89029372A372B372C37002EF7D752
:100CE0001ED027AF02D02C8F13D02C9F11D022C141
:100CF00000F023C12CF124C12BF125C12AF108D029
:100D00001EC100F01FC12CF120C12BF121C12AF11D
:100D10002CC101F02BC102F02AC103F034D0006ACB
:100D2000016A026A036A2FD0296B2A1F2B1F2C1F0E
:100D3000291F292B05E12A2B03E12B2B01E12C2B69
:100D400028B112D728B354D728B589D7B3D7EF50D5
:100D50002A2705E32B2B03E12C2BD8B42681ED5257
:100D6000EF502B2703E32C2BD8B42681ED52EF5004
:100D7000EFBE01D0800A2C27D8B0268128B9FCD636
:100D800028BB3ED774D7000112000101126B116B12
:100D9000106B7F0E0F6F166B156B146B136B178137
:100DA00017931795196B0B510C1105E1006A016A35
:100DB000026A036A0FD11951192B036A0B25E96ED8
:100DC0000C510320EA6EEFCF18F11853D8B4C5D0F8
:100DD00017A10FD0185120080CE0179118512B08BB
:100DE00003E11793ADD005D018512D0802E1178308
:100DF000A7D017B107D018512E0804E117B502D0BB
:100E000017859ED017B199D018512F08D8B095D01A
:100E100018513908D8A091D0300E185F17A553D0BB
:100E200012C11DF111C11CF110C11BF10FC11AF14A
:100E3000216B206B200E1F6F820E1E6F000123DDC1
:100E400003C012F102C011F101C010F100C00FF196
:100E500001011F6B18C11EF1000190DD03C01DF1DF
:100E600002C01CF101C01BF100C01AF103C021F146
:100E700002C020F101C01FF100C01EF112C125F116
:100E800011C124F110C123F10FC122F192D5D892E2
:100E900016C121F115C120F114C11FF113C11EF1BA
:100EA00003C025F102C024F101C023F100C022F1EA
:100EB00030DE03C016F102C015F101C014F100C00C
:100EC00013F139D001011D6B1C6B200E1B6F820EBC
:100ED0001A6F16C121F115C120F114C11FF113C100
:100EE0001EF10001D0DC03C01DF102C01CF101C0E5
:100EF0001BF100C01AF101011F6B18C11EF10001A6
:100F00003DDDD8921DC121F11CC120F11BC11FF193
:100F10001AC11EF103C025F102C024F101C023F162
:100F200000C022F1F6DD03C016F102C015F101C0C8
:100F300014F100C013F105D0010117B101D00DD09B
:100F4000000101011951192B036A0B25E96E0C519F
:100F50000320EA6EEFCF18F138D717A319D01D6B15
:100F60001C6B800E1B6F7F0E1A6F16C121F115C10D
:100F700020F114C11FF113C11EF1000184DC03C074
:100F800016F102C015F101C014F100C013F1010106
:100F90000D510E1117E019530CE019070DC1E9FFAF
:100FA0000EC1EAFF19510B25EF6E000E0C21EC6EFD
:100FB00009D00DC1E9FF0EC1EAFF0CC1ECFFED52F3
:100FC0000BC1EFFF13C100F014C101F015C102F015
:100FD00016C103F0000118EF08F001010B51B6082B
:100FE0000B6F036A0CC10FF10C8FD8900C330D33CB
:100FF0000E3303320232013200320B2FF6D70FAF1D
:101000000BD0001E011E021E031E002AD8B4012AA6
:10101000D8B4022AD8B4032A000129EF08F006C187
:101020000CF105C10BF101010E6B0D6B0001ADD68A
:1010300003C00AF102C009F101C008F100C007F1C4
:101040000AC10EF109C10DF108C10CF107C10BF184
:10105000C4D74DEF08F00101066B580E056F086B01
:10106000C80E076F000104EC02F002C002F101C0DB
:1010700001F10101015306E1025304E1000E016E8A
:10108000026E10D00E0E0125036F000E0221046FB8
:10109000066F03C105F10001C2D701C002F000C014
:1010A00001F00101000112000900F6CF04F1F7CFB1
:1010B00005F1F550A4A8FED7736E04C1F6FF05C173
:1010C000F7FF0101032F01D002D00001EDD700018D
:1010D00025EF0AF0EACF0BF1E9CF0AF1010104395B
:1010E000F009066F0627E20F076F320F096F0451F0
:1010F0000F0B072707270927E90F086F082708277D
:1011000003390F0B0827092708370937091F093743
:1011100003510F0B09270637070E056F0A0E080744
:101120000927FDE307070827FDE306070727FDE377
:1011300005070627FDE3010EEA6E050EE96E070EB0
:101140000A150A9DE926090EE95CD8B40A8DEF500C
:10115000006E08E10ABD06D00AB90CD00AB702D069
:10116000200E03D00A870A99300E00260050A4A84A
:10117000FED7736EEE500AADE6D700012CEF0AF0F1
:1011800094908B90060E0101016FFA0E056F00011D
:10119000D0EC01F00101012FF8D79480060E016F09
:1011A000FA0E056F0001D0EC01F00101012FF8D714
:1011B00000014AEF0AF0F86AD09E078E700ED36ED7
:1011C0009B9C9B9E1C6AB886A00EAF6E010EB06EF3
:1011D000A60EAC6E900EAB6E7086A00E756E010EF4
:1011E000766EA60E726E900E716E1D6A929E898E3C
:1011F000576ABC91BD6BBC93D86BBC95E26BE16B3D
:10120000BC97FE6BFD6BC150F00BC16E000E0F0161
:10121000386F3C6F396F3A6F3B6F0101886B776AAB
:10122000786A796A1AD002001600000900BE4F4B96
:10123000004552524F52001000C82B4854545041A0
:101240004354494F4E3A302C00000700D9244750F0
:10125000524D43001A40E3000000000EF86E120EDB
:10126000F76E260EF66E0900F550006E000A13E0C8
:101270000900F550016EE8BE05D00F0BEA6E0900BB
:10128000F5CFE9FF01BC090001AC0900F5CFEEFF85
:10129000004EE9D7F9D7F86A94809D8AA38AC00ED8
:1012A000F212026B580E016F640E036F0001A4EC82
:1012B00001F0FC0EF66E010EF76EAEEC01F06AEF77
:1012C00002F0B8EF02F0200EF66E020EF76EAEECF2
:1012D00001F0180E0101006FFA0E056F0001D0EC4D
:1012E00001F00101002FF8D70001C4EF02F04BEC30
:1012F00002F0015207E02E0EF66E020EF76EAEEC13
:1013000001F006D0380EF66E020EF76EAEEC01F06C
:1013100011EC03F087EF03F0FF6BFF51F908D8A041
:10132000B2D0D2EC02F03E0EF66E020EF76E380E20
:101330000101016F0001D7EF03F0FFC001F11B0EA7
:101340000101026F000103EF04F0220E9EA8FED7F8
:10135000AD6E0D0E9EA8FED7AD6E0101026BBE0EE6
:10136000016F0B0E046FB80E036F0001D5EC02F095
:10137000015206E17C0EF66E020EF76EAEEC01F045
:10138000D2EC02F00101026B580E016F640E036F84
:101390000001A4EC01F0880EF66E020EF76EBFECB1
:1013A00001F00101026BC80E016F1B0E046F580E95
:1013B000036F0001D5EC02F0015257E04CDE01C092
:1013C00000F00250036E03E1C80E005C0DE0020E57
:1013D000035C03E1590E005C0EE0020E035C03E1C6
:1013E0005C0E005C11E023D09A0EF66E020EF76ED2
:1013F000AEEC01F039D0A40EF66E020EF76EAEEC34
:1014000001F011EC03F030D0AE0EF66E020EF76E66
:10141000AEEC01F0080E0101006FFA0E056F00013D
:10142000D0EC01F00101002FF8D700011DD013DE30
:1014300002C001F101C000F1BC0EF66E020EF76EA3
:101440000C0E0101036F00012FD6100EE96E01C1D1
:1014500004F100C103F13ED60A0EA4A8FED7736EB4
:101460000D0EA4A8FED7736E06D0CE0EF66E020E39
:10147000F76EAEEC01F0640E0101056F0001D0ECD7
:1014800001F0FF2B4AD7DA0EF66E020EF76EAEECC5
:1014900001F076D6140E0101006FFA0E056F0001FF
:1014A000D0EC01F00101002FF8D7FFD7000134D7AD
:0214B000030037
:020000040030CA
:0E00000000F8181E00BF81000FC00FE00F4077
:00000001FF
;PIC18F45K22
;CRC=848E  CREATED="09-Nov-13 12:47"
