:040000000FEF0DF001
:08000800046ED8CF05F0E0CF33
:1000100006F00001E9CF0CF0EACF07F0E1CF08F0DD
:10002000E2CF09F0D9CF0AF0DACF0BF0F3CF12F01C
:10003000F4CF13F0FACF14F000C00EF001C00FF0AF
:1000400002C010F003C011F09DAA2AEF00F09EBA82
:100050005DEF00F0A3AA30EF00F0A4BA8EEF00F03D
:100060000EC000F00FC001F010C002F011C003F08C
:100070000CC0E9FF07C0EAFF078E08C0E1FF09C016
:10008000E2FF0AC0D9FF0BC0DAFF12C0F3FF13C0B2
:10009000F4FF14C0FAFF045006C0E0FF05C0D8FF0B
:1000A00010009EAAFED7ABCF1CF0AECF01F01CA271
:1000B00002D0AB98AB885EEF00F0F3D701C0BDF083
:1000C000036A5750580FE96E000E0320EA6EBDC058
:1000D000EFFFBD510A0806E1BCA303D0BC81BC936D
:1000E00001D0BC835750572A640801E1576A9E9A91
:1000F00030EF00F041540D00415445300D004154A3
:1001000045300D00A4AAFED771CF1CF074CF01F0CA
:100110001CA202D0719871888FEF00F0F3D701C054
:10012000C7F0A49A30EF00F0340A0D0041542B4878
:10013000545450494E49540D000046616C73653467
:100140000A0D0000350A0D0041542B4854545050FC
:100150004152413D22434944222C310D0000466169
:100160006C7365350A0D0000310A0D0041542B53A4
:10017000415042523D332C312C22434F4E54595062
:1001800045222C2247505253220D000046616C73C9
:1001900065310A0D0000320A0D0041542B534150C5
:1001A00042523D332C312C2241504E222C225741B9
:1001B000502E5741524944220D0046616C736532FE
:1001C0000A0D0000330A0D0041542B534150425296
:1001D0003D312C310D0046616C7365330A0D000012
:1001E00041542B485454505445524D0D0000415435
:1001F0002B53415042523D302C310D0053746172EB
:1002000074696E67207550210A0D000024504D540A
:100210004B3331342C302C312C302C302C302C30D2
:100220002C302C302C302C302C302C302C302C30EE
:100230002C302C302C302C302C302A32390D0A0046
:1002400024504D544B3232302C3230302A3243005D
:100250004C613D25362E3466264C6F3D25362E34B6
:100260006626543D257326443D2573000900F5524A
:100270000DE0F6CFBFF1F7CFC0F1F550A4A8FED73F
:10028000736EBFC1F6FFC0C1F7FFF0D787EF0DF067
:10029000010EEA6EC00EE96EEF500EE0050E016E23
:1002A000006A002EFED7012EFBD72E0E006E002E08
:1002B000FED700D0EF2EF2D71200929E899E080E34
:1002C000016E00D00000018E10D0019E0101C333E9
:1002D0000001D8B0898ED8A0899E018C06D0019CDF
:1002E000012EF4D700D00000898E010E006EE96A5D
:1002F000E92EFED7002EFBD70E0EE96EE92EFED7B3
:10030000000001BEE2D701BCEAD791EF01F009007D
:10031000F5520CE0F6CFC1F1F7CFC2F1F5CFC3F142
:10032000CCD7C1C1F6FFC2C1F7FFF1D712000C0E46
:10033000F66E020EF76EEBDF400EF66E020EF76EF3
:10034000E6DF2DEF02F05E0E0101C26FC10EC16F3C
:100350001D8C928A1A0E006E002EFED70000C12F4F
:1003600005D0C22F03D01D6A016A2AD080BAF2D705
:10037000080E006EC36B008E0ED0009E0CD0D8907D
:1003800080BAD880C333008C06D0009C002EF7D7EB
:10039000C351016E15D0010EE96E000E00BE550E60
:1003A000016E012EFED7E92EF8D70D0E00BE030E0A
:1003B000016E012EFED700BEE0D700BCE6D7DFD726
:1003C00000011200C2C103F00101C1C1E9FFC2C1B5
:1003D000EAFFEF5239E0C2C1C6F1C1C1C5F1C4C1E3
:1003E000C8F1C3C1C7F1C8C103F0C7C1E9FFC8C1A3
:1003F000EAFFEF5216E0C5C1E9FFC6C1EAFFEFCF41
:10040000C9F1C8C103F0C7C1E9FFC8C1EAFFEF5095
:10041000C95D07E1C52BD8B4C62BC72BD8B4C82BF0
:10042000E2D7C8C103F0C7C1E9FF03C0EAFFEF523A
:1004300005E1C1C101F0C2C102F009D0C12BD8B49D
:10044000C22B0001BFD70101000E016E026E000138
:100450005CEF02F0BC95BCB56AD7D86B74DF01C005
:10046000D7F0D7512408FAE1D7510D0810E0036AFC
:10047000D8510101BF25E96EC0510320EA6ED7C0F3
:10048000EFFF000160DF01C0D7F0D82BEDD7036A82
:10049000D8510101BF25E96EC0510320EA6EEF6A11
:1004A0000001BC85C0C1C2F1BFC1C1F10101C46B73
:1004B000D90EC36F000186D701500210CCE0B7EF10
:1004C0000DF0EF5210E0EACFC0F1E9CFBFF1EF50ED
:1004D000A4A8FED7736EC0C1EAFFBFC1E9FFE92A35
:1004E000D8B4EA2AEED71200E2C103F00101E1C15B
:1004F000E9FFE2C1EAFFE351EF5C12E0E2C103F081
:10050000E1C1E9FFE2C1EAFFEF5204E1000E016E32
:10051000026E0AD0E12BD8B4E22B0001E5D701012D
:10052000E1C101F0E2C102F000011200E2C1E8F114
:10053000E1C1E7F10101E55302E1E65327E0E4C13F
:1005400003F0E3C1E9FFE4C1EAFFEF521FE0E8C1B5
:1005500003F0E751E72BD8B4E82BE96F03C0EAF1C9
:10056000E4C103F0E351E32BD8B4E42BE96E03C0FC
:10057000EAFFEFCFEBF1EAC1EAFFE9C1E9FFEBC126
:10058000EFFFE551D8B4E607E507D5D7E55302E11B
:10059000E6530FE0E8C103F0E751E72BD8B4E82BAE
:1005A000E96E03C0EAFFEF6AE551D8B4E607E50754
:1005B000EDD7E1C101F0E2C102F00001120001013A
:1005C000F051D8B471D0006EF451D8B46DD000267B
:1005D00004E3810E002668E204D07F0E005E64E32F
:1005E00063E0F1C1F8F1F551F81BF18FF58FF3518C
:1005F000F703F4CFFAF1F251F603F4CF03F0F3CF9F
:10060000F9F1F703F350FA27F450F923000E03220F
:10061000F351F603F350FA27F450F923000E026A5F
:1006200003220222F151F703F350F927F450032279
:10063000000E0222F151F603F3500326F450022279
:10064000000E016A0122F351F503F350F927F4502B
:100650000322000E02220122F251F503F350032679
:10066000F4500222000E0122F151F503F35002264C
:10067000F4500122002A01BE05D0F93703360236B4
:1006800001360006000EF9AF0AD0032A0222012229
:10069000015005E1025003E1035001E1002AF8BFD7
:1006A000018EF8AF019E04D0006A016A026A036AF3
:1006B000000112008E0E006EF5C101F0F4C102F0CF
:1006C000036A015209E102C001F0026A080E005EED
:1006D000015202E1006A08D0D89001BE04D002366F
:1006E00001360006F9D7019E12000101F451D8B479
:1006F000CAD00201006F0101F851D8B4C4D0020180
:10070000005F07E37F0E0027D8A002D00101BBD015
:100710000AD0810E005FD8B002D00101B4D0D8A4B5
:1007200002D00101B0D000C200F0016A026A036A7F
:100730000101FF6BF5C1FEF1FE8FF6C1FDF1F7C1BE
:10074000FCF1190E0201006F0101FB51FC5F0DE28B
:10075000010EFD5F0AE2FE5F08E2FF5F06E2FF2B8B
:10076000FE2BFD2BFB51FC2728D0FA51FD5F12E236
:10077000010EFE5F0FE2FF5F0DE2FF2BFE2BFA5131
:10078000FD27FB51FC2719E3FD2B17E1FE2B15E19B
:10079000FF2B13D0F9518009FE5F0EE2010EFF5FBF
:1007A0000BE2FF2BF9518009FE27FA51FD27E9E3FF
:1007B000FE2BE7E1FF2BE5D703800201002F01D0DC
:1007C0000DD0D8900101FC37FD37FE37FF37D890A8
:1007D00003360236013602010137B6D701A106D031
:1007E000D890013202320332013304D0002E02D0FD
:1007F000010149D001BF23D0D8900101FC37FD375A
:10080000FE37FF37FB51FC5F07E2010EFD5F04E29C
:10081000FE5F02E2FF5F2BE3FA51FD5F05E2010E8E
:10082000FE5F02E2FF5F23E3F9518009FE5FD8A07B
:1008300002D0020104D0010EFF5F19E30201032A76
:10084000D8B402D0010113D0022AD8B402D00101D9
:100850000ED0012AD8B402D0010109D0002AD8A4B0
:1008600002D0010110D00132023203320101F5C180
:1008700000F2F9510201001B00AF02D0018E08D036
:10088000019E06D00101006A016A026A036A020140
:1008900000011200800ED8A202D00101F91B010153
:1008A000FE6BFF6BF5C1FDF1F951FD1BF451D8B49E
:1008B00025D1FC6F006EF851D8B42AD1FC5FD8B4B2
:1008C000A0D04DE3F9C102F20201028FFAC101F298
:1008D000FBC100F20101FF6BD8900201023301332A
:1008E00000330101FF33FC2FF6D7FDAF03D0FE81AB
:1008F00027D1FE91FC91FE89010EEA6EF70EE96E9A
:100900003CD1FE99FDBF0CD0FCA11AD002010233EC
:10091000013300330101FF33002AD8B40AD110D0CB
:10092000020102BF10D0D8900101FF370201003749
:1009300001370237002E02D00101FBD0F2D70101AE
:10094000FE8D86D0FE9DF5C1FDF10101F5AF03D00E
:100950000201028FE6D00201029FE3D00101F8C13B
:10096000FCF1F8C100F0F451FC5FF5C102F20201A4
:10097000028FF6C101F2F7C100F20101FF6BD890BE
:1009800002010233013300330101FF33FC2FF6D79C
:10099000FDAF03D0FE83D4D0FE93FC91FE8B010EFD
:1009A000EA6EFB0EE96EE9D0FE9BFDBF0CD0FCA108
:1009B0001AD002010233013300330101FF33002A50
:1009C000D8B4B7D010D0020102BF10D0D890010126
:1009D000FF370201003701370237002E02D0010134
:1009E000A8D0F2D70101FE8F33D0FE9FF9C1FDF1EF
:1009F0000101F9AF03D00201028F93D00201029FDF
:100A000090D0F9C102F20201028FFAC101F2FBC1DA
:100A100000F20101FDAF06D00201029F0101FE8537
:100A20008FD0FE95FF6BFC91010EEA6EF70EE96E1A
:100A3000A4D0FDBF2DD0F5C1FDF1FCA109D002016C
:100A40000233013300330101FF33002AD8B471D0DF
:100A5000FFAF19D00201002BD8B402D0010113D08E
:100A6000012BD8B402D001010ED0022BD8B402D091
:100A7000010109D0023301330033002AD8A402D087
:100A8000010157D00101FEBD5DD7FEBFAED72ED00C
:100A9000800E0201021B02AF06D0010151D0F9C144
:100AA000FDF114D00201F5C1FDF10253D8B402D01A
:100AB00001010CD00153D8B402D0010107D000537A
:100AC000D8B402D0010102D0006A2BD0020102AFDB
:100AD00002D001010BD0D8900101FF37020100378D
:100AE00001370237002EF3D7010123D0FDAF03D029
:100AF0000201028F16D00201029F13D0F8C100F04C
:100B0000F9C102F2FAC101F2FBC100F2020109D0FF
:100B1000F4C100F0F5C102F2F6C101F2F7C100F232
:100B2000020102C201F001C202F000C203F04CD087
:100B30000101006A016A026A036A020145D00101EB
:100B4000FF6B0201001F011F021F0101FF1FFF2B8E
:100B50000DE10201002BD8B402D0010107D0012B16
:100B6000D8B402D0010102D0022B0101FEB1C1D6DE
:100B7000FEB312D7FEB555D792D7EF50020100272A
:100B800008E3012B06E1022BD8A403D00101FC816C
:100B90000201ED52EF50012706E3022BD8A403D047
:100BA0000101FC810201ED52EF50EFBE01D0800A3D
:100BB0000227D8A002D00101FC810101FEB9A1D613
:100BC000FEBBF2D636D70201000112000101E86B2C
:100BD000E76BE66B7F0EE56FEC6BEB6BEA6BE96B3B
:100BE000ED81ED93ED95EF6BE151E21105E1006AC6
:100BF000016A026A036A10D1EF51EF2B036AE12503
:100C0000E96EE2510320EA6EEFCFEEF1EE53D8B475
:100C1000C5D0EDA10FD0EE5120080CE0ED91EE51C2
:100C20002B0803E1ED93ADD005D0EE512D0802E184
:100C3000ED83A7D0EDB107D0EE512E0804E1EDB55C
:100C400002D0ED859ED0EDB199D0EE512F08D8B0ED
:100C500095D0EE513908D8A091D0300EEE5FEDA5B9
:100C600053D0E8C1F3F1E7C1F2F1E6C1F1F1E5C11A
:100C7000F0F1F76BF66B200EF56F820EF46F00014A
:100C80009EDC03C0E8F102C0E7F101C0E6F100C05C
:100C9000E5F10101F56BEEC1F4F100010BDD03C0DC
:100CA000F3F102C0F2F101C0F1F100C0F0F103C0B4
:100CB000F7F102C0F6F101C0F5F100C0F4F1E8C1AE
:100CC000FBF1E7C1FAF1E6C1F9F1E5C1F8F10DDD9B
:100CD000D892ECC1F7F1EBC1F6F1EAC1F5F1E9C147
:100CE000F4F103C0FBF102C0FAF101C0F9F100C058
:100CF000F8F1D0DD03C0ECF102C0EBF101C0EAF184
:100D000000C0E9F139D00101F36BF26B200EF16FF5
:100D1000820EF06FECC1F7F1EBC1F6F1EAC1F5F12B
:100D2000E9C1F4F100014BDC03C0F3F102C0F2F1C0
:100D300001C0F1F100C0F0F10101F56BEEC1F4F179
:100D40000001B8DCD892F3C1F7F1F2C1F6F1F1C1BC
:100D5000F5F1F0C1F4F103C0FBF102C0FAF101C0FA
:100D6000F9F100C0F8F196DD03C0ECF102C0EBF13F
:100D700001C0EAF100C0E9F105D00101EDB101D0F7
:100D80000DD000010101EF51EF2B036AE125E96E5F
:100D9000E2510320EA6EEFCFEEF138D7EDA31AD07F
:100DA000F36BF26B800EF16F7F0EF06FECC1F7F119
:100DB000EBC1F6F1EAC1F5F1E9C1F4F10001DFECB4
:100DC00002F003C0ECF102C0EBF101C0EAF100C097
:100DD000E9F10101E351E41117E0EF530CE0EF07F3
:100DE000E3C1E9FFE4C1EAFFEF51E125EF6E000E38
:100DF000E221EC6E09D0E3C1E9FFE4C1EAFFE2C100
:100E0000ECFFED52E1C1EFFFE9C100F0EAC101F0F2
:100E1000EBC102F0ECC103F000011200E2C1E9F104
:100E20000101E651E91BE9AF05D0D894D890E2BFA3
:100E3000D8802FD0E2C1E9F1E5C1EAF1E151EA5FE2
:100E400006E0E9AF26D0D850010AD86E22D0E6C11C
:100E5000EAF1E251EA5F06E0E9AF1BD0D850010A9F
:100E6000D86E17D0E7C1EAF1E351EA5F06E0E9AFD7
:100E700010D0D850010AD86E0CD0E8C1EAF1E45184
:100E8000EA5F06E0E9AF05D0D850010AD86E01D07C
:100E9000D890000112008E0E006E0101EB51005E31
:100EA000ECC102F0EDC101F0028E005209E0D890D1
:100EB000025202E1015204E002320132002EF7D761
:100EC000ECAF05D0011E021E012AD8B4022A00018F
:100ED00012000101ED51EF03F3CF01F0F4CF00F068
:100EE000F003F3500026EE51EF03F3500020026EA2
:100EF00000011200080E0101E125E96E000EE22159
:100F0000EA6EEF6A070EE125016E000EE221036E24
:100F1000050EE125E96E000EE221EA6EEFCFE5F164
:100F200003C0EAFF01C0E9FFE5C1EFFF060EE125BE
:100F3000016E000EE221036E040EE125E96E000E43
:100F4000E221EA6EEFCFE5F103C0EAFF01C0E9FF5D
:100F5000E5C1EFFF050EE125E96E000EE221EA6E24
:100F60003A0EEF6E040EE125016E000EE221036ED3
:100F7000030EE125E96E000EE221EA6EEFCFE5F106
:100F800003C0EAFF01C0E9FFE5C1EFFF030EE12561
:100F9000016E000EE221036E020EE125E96E000EE5
:100FA000E221EA6EEFCFE5F103C0EAFF01C0E9FFFD
:100FB000E5C1EFFF020EE125E96E000EE221EA6EC7
:100FC0003A0EEF6E000194EF0CF0080E0101E125DE
:100FD000016E000EE221E1C1E9FFE2C1EAFFEFCFBD
:100FE000E5F1EA6E01C0E9FFE5C1EFFF090EE12579
:100FF000016E000EE221036E010EE125E96E000E86
:10100000E221EA6EEFCFE5F103C0EAFF01C0E9FF9C
:10101000E5C1EFFF060EE125016E000EE221036E31
:10102000030EE125E96E000EE221EA6EEFCFE5F155
:1010300003C0EAFF01C0E9FFE5C1EFFF030EE125B0
:10104000016E000EE221036E050EE125E96E000E31
:10105000E221EA6EEFCFE5F103C0EAFF01C0E9FF4C
:10106000E5C1EFFF050EE125016E000EE221036EE2
:10107000020EE125E96E000EE221EA6EEFCFE5F106
:1010800003C0EAFF01C0E9FFE5C1EFFF020EE12561
:10109000016E000EE221036E040EE125E96E000EE2
:1010A000E221EA6EEFCFE5F103C0EAFF01C0E9FFFC
:1010B000E5C1EFFF040EE125E96E000EE221EA6EC4
:1010C0002D0EEF6E070EE125E96E000EE221EA6EAD
:1010D0002D0EEF6EE1C1E9FFE2C1EAFF320EEF6EC5
:1010E000010EE125E96E000EE221EA6E300EEF6E90
:1010F0000A0EE125E96E000EE221EA6EEF6A0001B8
:101100009CEF0CF0F6C0EAFFF5C0E9FF0101EEC16B
:10111000EFFFE92AD8B4EA2AEF6A0001F52BD8B428
:10112000F62B12000900F6CFE2F1F7CFE3F1F5CF8D
:10113000EEF1E8DFE2C1F6FFE3C1F7FF0101E12FC5
:1011400001D002D00001EED7000112000101EE51E2
:10115000B608EE6F036AEFC1F2F1EF8FD890EF336C
:10116000F033F1330332023201320032EE2FF6D780
:10117000F2AF0BD0001E011E021E031E002AD8B4BF
:10118000012AD8B4022AD8B4032A00013EEF09F09C
:10119000D8B204D0010EEA6EF60EE96E006A016A5A
:1011A000026A036A0101F66BF76BF86BF96BF55194
:1011B000F411F311F2112CE0200EFA6FD890EE37F3
:1011C000EF37F037F137F637F737F837F937F551AA
:1011D000F95D08E1F451F85D05E1F351F75D02E1D5
:1011E000F251F65D0FE3F251F65FF351D8A0F33DF3
:1011F000F75FF451D8A0F43DF85FF551D8A0F53D64
:10120000F95FD8800036013602360336FA2FD6D77A
:10121000F6C1EFFFF7C1ECFFF8C1ECFFF9C1ECFF3D
:1012200000011200E9500101E66FE551E86F1CE092
:10123000E4C1F3F1E3C1F2F1E2C1F1F1E1C1F0F196
:10124000F76BF66B200EF56F820EF46F0001DFEC8A
:1012500002F003C0E4F102C0E3F101C0E2F100C01A
:10126000E1F10101E82FE4D7E4C1F1F1E3C1F0F1CC
:10127000E2C1EFF1E1C1EEF1000168D703C0E4F192
:1012800002C0E3F101C0E2F100C0E1F10101E4AF0D
:101290000DD0E607E68BE11FE21FE31FE41FE12B01
:1012A000D8B4E22BD8B4E32BD8B4E42B3B0EED6FCB
:1012B0009A0EEC6FCA0EEB6FEA6B0A0EE86FE551FF
:1012C000D8B4E62BD882010EEA6EE10EE96EE4C1D5
:1012D000F1F1E3C1F0F1E2C1EFF1E1C1EEF1EDC1F5
:1012E000F5F1ECC1F4F1EBC1F3F1EAC1F2F1000167
:1012F0004FDF0150005213E10101E529E85DD8A458
:1013000002D000010CD0E6510DE00F0BE85D01E0CA
:1013100040E2E6BF3ED0E6BD05D0200E34D0200E20
:101320000101E617E6AB0ED0E69BE551D8A4E6072F
:101330000050E66F2D0EEE6F0001E4DE0101E65174
:10134000006EE66BE551E85D0CE10050E66F2E0E95
:10135000EE6F0001D7DE0101E651006E200EE617A8
:10136000000E300EE6AB0FD0E69BE551D8A4E607A1
:101370000050E66F2D0EEE6F0001C4DE0101E65154
:10138000006EE66B300E002600C0EEF10001BADE02
:101390000101D892EDC1F1F1ECC1F0F1EBC1EFF137
:1013A000EAC1EEF1F56BF46BF36B0A0EF26F00011C
:1013B000EFDE03C0EDF102C0ECF101C0EBF100C0C3
:1013C000EAF10101E82F7ED700011200EF520FE091
:1013D000EACFE2F1E9CFE1F1EFCFEEF193DEE2C146
:1013E000EAFFE1C1E9FFE92AD8B4EA2AEFD71200FF
:1013F000C0C1E2F1BFC1E1F12C0E0101E36F0001B8
:1014000074EC02F0010E010101240001E16F000EF5
:10141000010102200001E26F010E0101E26FC30E23
:10142000E16FE2C0E4F1E1C0E3F1E66B060EE56FC7
:10143000000196EC02F0E2C0E2F1E1C0E1F12C0E15
:101440000101E36F000174EC02F0010E01010124BF
:101450000001E16F000E010102200001E26FE1C016
:10146000E9FFE2C0EAFFEF50410802E1BC8701D08A
:10147000BC97E2C0E2F1E1C0E1F12C0E0101E36FA3
:10148000000174EC02F0010E010101240001E16F82
:10149000000E010102200001E26FE2C0E2F1E1C0B2
:1014A000E1F10101E46BE36B0001E6EC05F003C040
:1014B000EBF002C0EAF001C0E9F000C0E8F0E2C0E1
:1014C000E2F1E1C0E1F12C0E0101E36F000174ECE7
:1014D00002F0010E010101240001E16F000E010183
:1014E00002200001E26FE1C0E9FFE2C0EAFFEF5035
:1014F0004E0803E14E0EE76F09D0E1C0E9FFE2C0FC
:10150000EAFFEF50530802E1530EE76FE2C0E2F149
:10151000E1C0E1F12C0E0101E36F000174EC02F077
:10152000010E010101240001E16F000E0101022002
:101530000001E26FE2C0E2F1E1C0E1F10101E46B20
:10154000E36B0001E6EC05F003C0E6F002C0E5F055
:1015500001C0E4F000C0E3F0E2C0E2F1E1C0E1F17B
:101560002C0E0101E36F000174EC02F0010E010189
:1015700001240001E16F000E010102200001E26F71
:10158000E1C0E9FFE2C0EAFFEF50570803E1570E60
:10159000EC6F09D0E1C0E9FFE2C0EAFFEF50450877
:1015A00002E1450EEC6FE2C0E2F1E1C0E1F12C0E88
:1015B0000101E36F000174EC02F0010E010101244E
:1015C0000001E16F000E010102200001E26FE2C0A4
:1015D000E2F1E1C0E1F10101E46BE36B0001E6EC53
:1015E00005F003C0F0F002C0EFF001C0EEF000C063
:1015F000EDF0E2C0E2F1E1C0E1F12C0E0101E36F98
:10160000000174EC02F0010E010101240001E16F00
:10161000000E010102200001E26FE2C0E2F1E1C030
:10162000E1F10101E46BE36B0001E6EC05F003C0BE
:10163000F4F002C0F3F001C0F2F000C0F1F0E2C03B
:10164000E2F1E1C0E1F12C0E0101E36F000174EC65
:1016500002F0010E010101240001E16F000E010101
:1016600002200001E26F010E0101E26FCD0EE16F79
:10167000E2C0E4F1E1C0E3F1E66B060EE56F0001C4
:1016800096EC02F0BCA722D0E6C0E4F1E5C0E3F19D
:10169000E4C0E2F1E3C0E1F10101E86BE76BE66B66
:1016A000E56B00010EEC07F011E0EBC0E4F1EAC0DD
:1016B000E3F1E9C0E2F1E8C0E1F10101E86BE76BB9
:1016C000E66BE56B00010EEC07F000E0EBC0F7F114
:1016D000EAC0F6F1E9C0F5F1E8C0F4F10101FB6BF5
:1016E000FA6B480EF96F850EF86F000175EC03F088
:1016F00003C0EEF102C0EDF101C0ECF100C0EBF16E
:101700004BEC07F001C0E1F10101E76BE1C1E6F14B
:10171000E7C1EEF1E1C1EDF1F06B640EEF6F000196
:1017200069EC07F002C0F5F101C0F4F100015AECD8
:1017300003F0D882EBC0F7F1EAC0F6F1E9C0F5F1A9
:10174000E8C0F4F103C0FBF102C0FAF101C0F9F105
:1017500000C0F8F14AEC04F003C0E5F102C0E4F186
:1017600001C0E3F100C0E2F1E5C1F7F1E4C1F6F137
:10177000E3C1F5F1E2C1F4F10101FB6BFA6B700E0C
:10178000F96F840EF86F000175EC03F003C0E9F106
:1017900002C0E8F101C0E7F100C0E6F10101F56B1C
:1017A000E1C1F4F100015AEC03F0D892E9C1F7F17C
:1017B000E8C1F6F1E7C1F5F1E6C1F4F103C0FBF1D0
:1017C00002C0FAF101C0F9F100C0F8F14AEC04F0EE
:1017D00003C0EBF002C0EAF001C0E9F000C0E8F09D
:1017E000E751530803E0E751570803E1E951800A44
:1017F000E96FE6C0F7F1E5C0F6F1E4C0F5F1E3C04A
:10180000F4F10101FB6BFA6B480EF96F850EF86F6E
:10181000000175EC03F003C0EEF102C0EDF101C070
:10182000ECF100C0EBF14BEC07F001C0E1F101017C
:10183000E76BE1C1E6F1E7C1EEF1E1C1EDF1F06B7B
:10184000640EEF6F000169EC07F002C0F5F101C012
:10185000F4F100015AEC03F0D882E6C0F7F1E5C0DC
:10186000F6F1E4C0F5F1E3C0F4F103C0FBF102C00E
:10187000FAF101C0F9F100C0F8F14AEC04F003C03C
:10188000E5F102C0E4F101C0E3F100C0E2F1E5C11D
:10189000F7F1E4C1F6F1E3C1F5F1E2C1F4F10101C0
:1018A000FB6BFA6B700EF96F840EF86F000175EC2C
:1018B00003F003C0E9F102C0E8F101C0E7F100C0A4
:1018C000E6F10101F56BE1C1F4F100015AEC03F01E
:1018D000D892E9C1F7F1E8C1F6F1E7C1F5F1E6C147
:1018E000F4F103C0FBF102C0FAF101C0F9F100C04C
:1018F000F8F14AEC04F003C0E6F002C0E5F001C0E4
:10190000E4F000C0E3F0EC51530803E0EC51570859
:1019100003E1E451800AE46F010E0101E26FC30E9E
:10192000E16F00017AEF07F0010E0101E26FCD0EC9
:10193000E16F0001E5EF07F0EA6A3F0EE96E010E84
:10194000E26EC30EE16EE752E6CFEEFFFCE1E6C0C9
:101950003EF0E5C03DF0E4C03CF0E3C03BF0EBC03E
:101960003AF0EAC039F0E9C038F0E8C037F0C2C157
:10197000F6F0C1C1F5F0500EF66E020EF76E030ED2
:101980000101E16F000192EC08F0050EE96EEBC079
:10199000E4F1EAC0E3F1E9C0E2F1E8C0E1F1040EEC
:1019A0000101E56F00013EDC580EF66E020EF76E87
:1019B000040E0101E16F000192EC08F0050EE96EE2
:1019C000E6C0E4F1E5C0E3F1E4C0E2F1E3C0E1F137
:1019D000040E0101E56F000125DC610EF66E020EBA
:1019E000F76E030E0101E16F000192EC08F0010EA9
:1019F000EA6EC30EE96EEADC660EF66E020EF76E54
:101A0000030E0101E16F000192EC08F0010EEA6E95
:101A1000CD0EE96EDBDC010E016ECEEF0DF0F86A43
:101A2000D09E078E700ED36E9B9C9B9E1C6AB886C0
:101A3000A00EAF6E010EB06EA60EAC6E900EAB6E29
:101A40007086A00E756E010E766EA60E726E900EEA
:101A5000716E1D6A929E898E576ABC91BD6BBC9354
:101A6000D86BBC95E26BE16BBC97F66BF56BC15024
:101A7000F00BC16E000E0F01386F3C6F396F3A6F7B
:101A80003B6F0101886B776A786A796A1AD0020025
:101A90001600000900BE4F4B004552524F52001035
:101AA00000C82B48545450414354494F4E3A302CAF
:101AB00000000700D9244750524D43001240E30074
:101AC0000000000EF86E1A0EF76E8E0EF66E09000C
:101AD000F550006E000A13E00900F550016EE8BEF3
:101AE00005D00F0BEA6E0900F5CFE9FF01BC090034
:101AF00001AC0900F5CFEEFF004EE9D7F9D7F86A3F
:101B0000FC0EF66E010EF76E000136EF01F09290BA
:101B1000898092928982040E0101BF6FFA0EC06F14
:101B2000000148EC01F00101BF2FF8D79290899095
:101B30009292899293908A8093928A82040EBF6FC8
:101B4000FA0EC06F000148EC01F00101BF2FF8D779
:101B500093908A9093928A92300E0001F76FF86BFF
:101B60000101C06BF70EBF6F00012AEF02F0EA6AB5
:101B7000F70EE96E61EC02F00A0EA4A8FED7736EB0
:101B80000D0EA4A8FED7736E0101C06BF70EBF6FD8
:101B9000010EC26F5B0EC16F00012AD4010EEA6E06
:101BA0005B0EE96E61EC02F00A0EA4A8FED7736E1C
:0C1BB0000D0EA4A8FED7736ED3D703005F
:020000040030CA
:0E00000000F8181E00BF81000FC00FE00F4077
:00000001FF
;PIC18F45K22
;CRC=08B8  CREATED="12-Nov-13 13:57"
